:0300000002064DA8
:0C064D00787FE4F6D8FD75811402017C72
:1002E3000000E43F2820282581084210020208026A
:1002F300E83F04020707840A44123462040200023E
:1003030088208824882488248824BF248824882457
:10031300882488248824B824872442244020202049
:10032300800080004001200210040808F417836055
:100333008000FC1F8000880890089004FF7F000065
:1003430080008200840F44082004F03F27222422E7
:10035300E43F0405840C8454444424780A00F17F68
:10036300F80F0808F80F0808F80F0000FC3F040016
:10037300F41F0400FC7F9410140912065218316014
:10038300800080008000FC1F841084108410FC1FF8
:10039300841084108410FC1F845080408040007FB0
:1003A3000000FE1F00080004000280018000FF7FA0
:1003B300800080008000800080008000A00040005A
:1003C3000000E41F4810481041108208920890086A
:1003D3000805080507020402040584084410306078
:1003E30040008000FE7F02400120F8070002000168
:1003F3008000FF7F8000800080008000A00040001C
:1004030000010402E83F28200100C21F0202C81FA6
:100413004812C41F4712C41F04008408441020203C
:100423000000FC1F0000000000000000FF7F8000B0
:10043300800088088810842082408140A00040000A
:10063900E4FDD3EF9400EE940040080DEF1F70F233
:030649001E80EF21
:01064C00228B
:0405DC007FE87E0333
:1005E000E4FDFCC3ED9FEC9E5015E4FBFA0BBB0051
:0F05F000010ABA03F8BB84F50DBD00010C80E4CD
:0105FF0022D9
:10060000E4FE53A0FEEF20E70553A0FD800343A0C6
:0F06100002EF25E0FF43A00153A0FE0EBE08E35A
:01061F0022B8
:0C0620007F011205787F3F1205787F2CC7
:0D062C0053A0F753A0EF12060043A01022C8
:100553007F2A12062CE4FF120578E4FF120578E4E3
:10056300FF1205787FEF1205787F2B12062CE4FF2C
:05057300120578E4FF11
:0D05780043A00853A0EF12060043A010227C
:1005B100120553120620E4FDFCE4FBFA120571E476
:1005C100FF1205780BBB00010AEB64F04A70ED0DD8
:0A05D100BD00010CBC01E2BD40DFDB
:0105DB0022FD
:0404F7007F007C0006
:0804FB008F0B8E0A8D098C089D
:10050300120553120620E4F50CF50DE4FBFAAF0BCC
:10051300AE0AAD09AC08781012059E120578AF0B30
:10052300AE0AAD09AC08780812059E120578AF0B28
:100533001205780BBB00010AEB64F04A70D0050D7D
:0F054300E50D7002050CC39440E50C940140BC1B
:010552002286
:1000030053A0FE53A0FB1205DC43A0041205E07FBE
:100013001112062C7F787E001205E07F2A12056EEE
:10002300E4FF1205787FEF1205787F2B12062CE48C
:10003300FF1205787F281205787F011205787F1754
:100043001205787FB212062C7F0C1205787F0C12F2
:1000530005737F331205787F331205787F201206EC
:100063002C7FB712062C7F561205787FBB12062C05
:100073007F181205787FC012062C7F2C1205787F1B
:10008300C212062C7F011205787FC312062C7F1F34
:100093001205787FC412062C7F201205787FC612C2
:1000A300062C7F0F1205787FD012062C7FA612052F
:1000B300787FA11205787FE012062C7FD012057895
:1000C3007F0D1205787F141205787F0B1205787F58
:1000D3000B1205787F071205787F3A1205787F4463
:1000E3001205787F501205787F081205787F131266
:1000F30005787F131205787F2D1205787F3212055C
:10010300787FE112062C7FD01205787F0D120578D7
:100113007F141205787F0B1205787F0B1205787F09
:10012300071205787F3A1205787F441205787F50CD
:100133001205787F081205787F131205787F131252
:1001430005787F2D1205787F321205787F361206E7
:100153002CE4FF1205787F3A12062C7F661205788D
:100163007FE712062CE4FF1205787F2112062C7F0D
:090173002912062C7F2C02062C37
:050443007D187C01FEA4
:040448008E088F0982
:10044C00E4FB7F2A12062CE508FF120578AF09128F
:10045C000578740F2509F509E43508F508FF120530
:10046C0078AF091205787F2B12062CAF0412057891
:10047C00AF05120578740F2DFDE43CFCFF120578D6
:10048C00AF05120627E4F513F514AB10AA11A91247
:10049C00120585FAE4FBEA30E024AF0FAE0EAD0D89
:1004AC00AC0C781012059E120578AF0FAE0EAD0D88
:1004BC00AC0C780812059E120578AF0F800512055A
:1004CC0071E4FF120578EAC313FA0BBB08C8740178
:1004DC002512F512E43511F5110514E51470020519
:0A04EC0013C39420E513940040A010
:0104F60022E3
:0406590075A0FF2267
:10017C001206591200037E007DFF1204F71205DCF3
:10018C007EFF7D001204F71205DC7FFF7E007D00F0
:10019C007C001204FB1205DC1205B1E4F50FF50E20
:1001AC00750DFFF50C7510FF7511027512E37DC806
:1001BC00FC7F68FE120448E4F50F750EFFF50DF593
:1001CC000C7510FF7511037512037DC8FC7F78FE4A
:1001DC00120448E4750FFFF50EF50DF50C7510FFC4
:1001EC00751103751223FD7C017F50FE12044874B7
:1001FC00FFF50FF50EF50D750C00F5107511037567
:10020C0012437D007C017F607E00120448E4750F70
:10021C00FFF50EF50DF50C7510FF751103751263D6
:10022C00FD7C017F70FE120448E4F50F750EFFF59E
:10023C000DF50C7510FF751103751283FD7C017F94
:10024C008AFE120448E4F50FF50E750DFFF50C75DA
:10025C0010FF7511037512A3FD7C017F9AFE120429
:10026C0048E4750FFFF50EF50DF50C7510FF7511C3
:10027C00037512C37F60120443E4F50F750EFFF58E
:10028C000DF50C7510FF7511037512E37F701204D8
:10029C0043E4F50FF50E750DFFF50C7510FF751198
:1002AC00047512037D187C017F8AFE120448E475E4
:1002BC000FFFF50EF50DF50C7510FF751104751289
:1002CC00237D187C017F9AFE1204481205DC12056E
:0702DC00B11205DC0201A7CD
:10058500BB010689828A83E0225002E722BBFE0274
:09059500E32289828A83E49322A7
:10059E00E8600FECC313FCED13FDEE13FEEF13FF3B
:0305AE00D8F1225F
:00000001FF
