:020000040800F2
:10000000600600206D0100087D030008430300081E
:10001000790300081F020008E10800080000000042
:10002000000000000000000000000000C503000800
:100030002302000800000000A1030008B10400082A
:100040008701000887010008870100088701000870
:100050008701000887010008870100088701000860
:100060008701000887010008870100088701000850
:100070008701000887010008870100088701000840
:100080008701000887010008870100088701000830
:100090008701000887010008870100088701000820
:1000A0008701000887010008870100088701000810
:1000B0008701000887010008870100088701000800
:1000C00087010008870100088701000887010008F0
:1000D00087010008870100088701000887010008E0
:1000E00087010008870100088701000800F002F876
:1000F00000F02CF80AA090E8000C82448344AAF196
:100100000107DA4501D100F021F8AFF2090EBAE893
:100110000F0013F0010F18BFFB1A43F0010318473B
:10012000C4380100D4380100002300240025002633
:10013000103A28BF78C1FBD8520728BF30C148BF4A
:100140000B6070471FB51FBD10B510BD00F031F832
:100150001146FFF7F7FF00F0E1FB00F04FF803B4A2
:10016000FFF7F2FF03BC00F053F800000948804796
:1001700009480047FEE7FEE7FEE7FEE7FEE7FEE789
:10018000FEE7FEE7FEE7FEE704480549054A064BA1
:1001900070470000B5040008ED0000086000002072
:1001A0006006002060020020600200207047704757
:1001B0007047754600F028F8AE460500694653467C
:1001C00020F00700854618B020B5FFF7DDFFBDE839
:1001D00020404FF000064FF000074FF000084FF0AE
:1001E000000B21F00701AC46ACE8C009ACE8C0093F
:1001F000ACE8C009ACE8C0098D4670470446AFF3CF
:1002000000802046FFF7ABFF004870470000002049
:1002100001491820ABBEFEE726000200704700BF70
:10022000FEE770472DE9F041024600250026002038
:1002300000230024002791F803C00CF00F0591F86B
:1002400003C00CF0100CBCF1000F03D091F802C0F9
:100250004CEA050591F800C0BCF1000F31D01468DC
:1002600000202BE04FF0010C0CFA00F3B1F800C0B5
:100270000CEA03069E4220D183004FF00F0C0CFACB
:1002800003F7BC4305FA03FC4CEA040491F803C0ED
:10029000BCF1280F06D14FF0010C0CFA00FCC2F89B
:1002A00014C00AE091F803C0BCF1480F05D14FF02B
:1002B000010C0CFA00FCC2F810C0401C0828D1D375
:1002C0001460B1F800C0BCF1FF0F34DD54680020A9
:1002D0002EE000F1080C4FF0010808FA0CF3B1F819
:1002E00000C00CEA03069E4221D183004FF00F0CA0
:1002F0000CFA03F7BC4305FA03FC4CEA040491F83A
:1003000003C0BCF1280F05D100F1080C08FA0CF865
:10031000C2F8148091F803C0BCF1480F07D100F176
:10032000080C4FF0010808FA0CF8C2F81080401CC5
:100330000828CED35460BDE8F08141617047016167
:10034000704700BFFEE7000001464906084A92696F
:1003500042F00102064B9A61064A526822F0E062BE
:10036000044B5A601A4652680A435A6070470000AC
:10037000001002400000014000BFFEE7704710B5CA
:100380004FF4A06000F002F810BD000002490143E4
:10039000024A1160704700000000FA050CED00E011
:1003A0007047000029B1064A92690243044B9A61E2
:1003B00004E0034A92698243014B9A61704700004E
:1003C00000100240704710B500F002F810BD0000A8
:1003D0000CB50020019000903348006840F4803054
:1003E0003149086000BF3048006800F400300090D8
:1003F0000198401C0190009818B90198B0F5A06FC1
:10040000F1D12948006800F4003010B101200090BB
:1004100001E0002000900098012843D123480068A3
:1004200040F01000214908600846006820F00300F1
:1004300008600846006840F0020008601A484068FA
:10044000194948600846406848600846406840F4DA
:10045000806048600846406820F47C104860084688
:10046000406840F4E81048600846006840F080703A
:10047000086000BF0C48006800F000700028F9D048
:100480000948406820F00300074948600846406872
:1004900040F00200486000BF0348406800F00C00D4
:1004A0000828F9D10CBD00000010024000200240D5
:1004B0007047000010B51348006840F00100114972
:1004C000086008464068104908400E4948600846E0
:1004D00000680E4908400B4908600846006820F48F
:1004E000802008600846406820F4FE0048604FF411
:1004F0001F008860FFF767FF4FF000600449086045
:1005000010BD0000001002400000FFF8FFFFF6FEE3
:1005100008ED00E02DE9F04104460D4616461F4661
:100520002A2000F09FF9A0B200F08DF9B0B200F0DF
:100530008AF92B2000F096F9A8B200F084F9B8B23D
:1005400000F081F92C2000F08DF9BDE8F0812DE953
:10055000F04706460F4614461D46DDF820A0681EEB
:1005600083B2601E82B239463046FFF7D3FFB846E9
:100570000EE0B14606E0504600F065F909F10100D1
:100580001FFA80F9A145F6DB08F101001FFA80F897
:10059000A845EEDBBDE8F08708B501210820FFF78C
:1005A00001FF4FF47C70ADF8000010208DF80300BF
:1005B00003208DF8020069460448FFF733FE4FF42C
:1005C0007C710248FFF7BBFE08BD0000000C014033
:1005D00010B5FFF7E1FF80218048FFF7AEFE6420F1
:1005E00000F080F980217D48FFF7A9FE642000F02B
:1005F00079F910217948FFF7A2FE642000F072F922
:10060000362000F02FF9002000F026F9B22000F08B
:1006100029F90C2000F020F90C2000F01DF9002031
:1006200000F01AF9332000F017F9332000F014F924
:10063000202000F017F9B72000F014F9562000F040
:100640000BF9BB2000F00EF9182000F005F9C020CE
:1006500000F008F92C2000F0FFF8C22000F002F9A9
:10066000012000F0F9F8C32000F0FCF81F2000F092
:10067000F3F8C42000F0F6F8202000F0EDF8C620D2
:1006800000F0F0F80F2000F0E7F8D02000F0EAF8D2
:10069000A62000F0E1F8A12000F0DEF8E02000F054
:1006A000E1F8D02000F0D8F80D2000F0D5F81420A3
:1006B00000F0D2F80B2000F0CFF80B2000F0CCF8BF
:1006C000072000F0C9F83A2000F0C6F8442000F0F6
:1006D000C3F8502000F0C0F8082000F0BDF8132047
:1006E00000F0BAF8132000F0B7F82D2000F0B4F8AD
:1006F000322000F0B1F8E12000F0B4F8D02000F092
:10070000ABF80D2000F0A8F8142000F0A5F80B209D
:1007100000F0A2F80B2000F09FF8072000F09CF8F2
:100720003A2000F099F8442000F096F8502000F0AC
:1007300093F8082000F090F8132000F08DF81320B3
:1007400000F08AF82D2000F087F8322000F084F8BD
:10075000362000F087F8002000F07EF83A2000F004
:1007600081F8052000F078F8E72000F07BF8002001
:1007700000F072F8212000F075F8292000F072F8DE
:100780002C2000F06FF8212000F06CF8112000F010
:1007900069F8292000F066F82A2000F063F80020AC
:1007A00000F05AF8002000F057F8002000F054F84C
:1007B000EF2000F051F82B2000F054F8002000F05A
:1007C0004BF8282000F048F8012000F045F81720E9
:1007D00000F042F82C2000F045F810BD000C01405C
:1007E0002DE9F05F0746884615461E46DDF828903D
:1007F000002408EB0600401E83B27819401E82B226
:1008000041463846FFF786FEA24618E04FF0000B3F
:100810000FE019F8140000F01FF8012101EB44016A
:1008200019F8010000F018F8641C0BF101001FFA20
:1008300080FBB345EDDB0AF101001FFA80FAAA45FF
:10084000E4DBBDE8F09F10B50446201200F01AF872
:10085000E0B200F017F810BD10B50446204600F0D5
:1008600011F810BD10B5044640210548FFF765FD9D
:10087000204600F007F840210148FFF760FD10BD59
:10088000000C014070B5044620211448FFF755FDC7
:1008900000251BE04FF400711048FFF74EFD04F0F7
:1008A000800028B14FF480710C48FFF748FD04E048
:1008B0004FF480710948FFF740FD4FF4007107487D
:1008C000FFF73DFD6006040E681CC5B2082DE1DB94
:1008D00020210248FFF733FD70BD0000000C0140ED
:1008E00000BFFEE7014642F228324A434FF0E023C0
:1008F0005A6101221A6100229A6100BF4FF0E02282
:10090000106900F001021AB100F48032002AF5D01B
:1009100000224FF0E0231A619A61704708B5FFF793
:10092000C9FDFFF72CFD0220FFF70EFD0120FFF7A8
:100930000BFD0A20FFF7D6FFFFF74AFE4FF6FF70C8
:100940004FF4A073F022002100900846FFF7FFFD4E
:1009500057E02C481423F022002100900846FFF7AE
:100960003FFF0120FFF7BEFF27481423F02219465E
:1009700000900020FFF734FF0120FFF7B3FF23486A
:100980001423F022282100900020FFF729FF0120E6
:10099000FFF7A8FF1E481423F0223C2100900020FE
:1009A000FFF71EFF0120FFF79DFF1A481423F022D6
:1009B000502100900020FFF713FF0120FFF792FF66
:1009C00015481423F022642100900020FFF708FF4F
:1009D0000120FFF787FF11481423F02278210090AF
:1009E0000020FFF7FDFE0120FFF77CFF0C481623D7
:1009F000F0228C2100900020FFF7F2FE0120FFF78B
:100A000071FFA6E7240A0008A42F00082455000857
:100A1000A47A000824A00008A4C5000824EB00085C
:100A2000A410010843944394439443B443944394DF
:100A300043944394439443B443B443B4439443B47E
:100A400043B443B443B443944394439443B443946E
:100A50004394439443B443B443B543B543B543B51A
:100A600043B543B543B54B954B954BB54BB543B5E6
:100A7000439543B543B543B54395439543B543B516
:100A8000439543954395439543953B953B953B94BF
:100A90003B943B943B94439543953B953B953B74EA
:100AA0003B743B743B743B743B7443954395439553
:100AB00043954395439543954395439543B543B536
:100AC00043B543B543B543B543B543B543B643B664
:100AD00043B643B643D64BD643D64BB64BD643D696
:100AE00043D643D643D643D64BD64BD64BD64BD61E
:100AF0004BD64BD64BD64BD64BD64BD64BD64BD6EE
:100B00004BD64BD64BD64BD64BD64BD64BD64BD6DD
:100B10004BD64BD64BD64BD643D643D643D743D7EB
:100B200043D74BD74BD743B643D64BD643D643D503
:100B300043D543D643D643D643D64BD64BD64BD6D6
:100B40004BD643B643D643D643D643D643D643D6F5
:100B500043D643B643B64396439643B643D643D6AD
:100B600043D643D543D643D643D643B643B643B61E
:100B700043D643B643B643B643B643B643B643B68D
:100B800043B643B643B6439643964396439643963D
:100B9000439643964396439643964396439643968D
:100BA00043964396439643B643964396439643965D
:100BB0004396439743974397439743974397439766
:100BC00043B743B743974397439743B743B743B7B5
:100BD00043B743B743B743B7439743B7439643B786
:100BE00043B743B7439643964396439643964396FB
:100BF000439643964396439643964396439643962D
:100C00004396439643944394439443944394439428
:100C1000439443944394439443944394439443941C
:100C2000439443B4439443944394439443944394EC
:100C30004394439443B443B5439543B543B543B557
:100C400043B543B543954B954B954B954B95439584
:100C500043B543B543B543B5439543B54395439534
:100C6000439543954395439543953B9543953B94D5
:100C70003BB43B943B743B953B953B943B953B95F8
:100C80003B9543953B953B94439543B543B543B55D
:100C900043B543B543B54BB54BD643D643B543D522
:100CA00043D543D543D643D643D643D64BD64BD66E
:100CB00043D64BD64BD64BD64BD64BD64BD643D63C
:100CC00043D643D643D643B643D643D643D643B69C
:100CD0004BD643D64BD64BD64BD64BD64BD643D61C
:100CE00043D643D64BD643D643D643D643D643D634
:100CF00043D643D64BD643D643B643B643B643B6A4
:100D000043B743D743D743B643B643D643D643D678
:100D100043D643D643D643D643D643B643B643B66B
:100D200043B643B643B643B643B643B643B643B6FB
:100D300043B643B643B643B643B643B643D643D5AC
:100D400043B543D543D643B643B643B643B543B69E
:100D500043B643B643B643B643B643B643B643B6CB
:100D600043B643964396439643964395439643969C
:100D7000439643963B763B7643963B953B963B9614
:100D80003B963B953B9643963B963B963B963B96D4
:100D90003B96439643964397439643964396439791
:100DA00043B7439743974397439743964396439656
:100DB000439643964396439643964396439643966B
:100DC000439643B643B64396439643B643B64396DB
:100DD00043B6439643B643964396439643B643B6CB
:100DE00043B643B643944394439443944394439407
:100DF000439543944394437443944394439443945A
:100E00004394439443944375439443954395439546
:100E100043B543B543B543B543B54395439543B552
:100E200043B54395439543954B954B95439543B5B2
:100E300043B543B543B53BB543B543B543B543B6F9
:100E400043B543B543B543B643B543B543B543B5E1
:100E500043B543B543B5439543B543B543B543B5F2
:100E600043D543B543B543B543B543D543D543D641
:100E700043D643D543B543B543B543B543D643D62F
:100E800043D643D643D643D643D643D64BD64BD68A
:100E90004BD64BD643D64BD64BD64BD64BD643D65A
:100EA00043D643D643D643D643D643B643B64BD6B2
:100EB0004BD643D64BD64BD643D643D643B643D672
:100EC00043D643D643D643D643D643D643D643D65A
:100ED00043D643D643D643D643D643D643D643D64A
:100EE00043D643D64BD643D643B543B543B543B5B6
:100EF00043B543B543B543B543B53B953B953B95AA
:100F00003B953B953B953B953B954395439543B529
:100F100043B543B543963B953B953B953B953B95F8
:100F200043953B944396439643B543B643B543B587
:100F300043B543B543B543B543B543D543D543B6B0
:100F400043953B953B9543953B753B753B753B7591
:100F50003B753B753B753B753B753B753B753B95F1
:100F60003B753B753B753B953B753B753B763B76DF
:100F70003B763B763B763B963B9643964396439631
:100F8000439643B743B643B743B643B643B643B6B7
:100F900043B743964396439643B643964396439648
:100FA000439643964396439643B643B643B643B6F9
:100FB00043B643B643B6439643B6439643B643B6A9
:100FC00043B643B643944394439443944374437564
:100FD0004375437543754374437543754375437453
:100FE000437443744374437443744394439543B5C7
:100FF00043B543B543B543B543B543B543B543B531
:10100000439543B543B643B543B543B643B643B63C
:1010100043B543B543B543B543B543B5439543B530
:1010200043B643B643B643B643B643B543B543B5FB
:1010300043B543B543B543D643D643D543D543D64D
:1010400043D643D543D543D543D643D543D543D6DD
:1010500043D543D643D543D643D543B543D643D6EC
:1010600043B543B543D643D643D643D643B643B63A
:1010700043D64BB643B643B643B643D643B643B660
:1010800043B643B643B643B643B643B643B64396B8
:1010900043B543B643B643B643B643B643B643B689
:1010A00043B643B643B643B643B643B643B643B579
:1010B00043B543B543B543B643B543B5439543B58F
:1010C00043B643B643B6439543B543953B943B94EF
:1010D0003B9443954395439543953B9543953B9569
:1010E0003B953B743B753B753B753B744395439512
:1010F00043B5439543953B953B9543954395439421
:10110000439443943B954396439543B543B54394E9
:101110003B9443944394439443B443B443B54395BD
:1011200043953B953B9543754375437543754375AF
:101130004375437543753B753B753B753B753B7517
:101140003B753B753B753B753B753B753B753B751F
:101150003B753B763B763B75439643964396439669
:1011600043964396439643964396439643964396B7
:1011700043964396439643963B76439643964396CF
:1011800043964396439643B643B643B643B643B6F7
:1011900043B643B643B643964396439643B6439607
:1011A00043B643B6439543954B9543954B9543754D
:1011B0004B7543754B754B754B754B754B7543753F
:1011C00043754375437543954395439543B543959F
:1011D00043B543B543B643B543B543B543B543B54E
:1011E00043B543B543B643B643B643B643B643B639
:1011F00043B643B643B643B643B643B643B643B528
:1012000043D643D643D643D643B643D643D643B656
:1012100043B643D643D643D643D643D643D643D626
:1012200043D643D643D643D643D643D643D643D6F6
:1012300043D643D643D643D643B643B643B543B667
:1012400043B643B64BD643D643D643D643B643D62E
:1012500043D643B643B643B643B543B643B643B5A8
:1012600043B543B543B543D643B5439543953B7525
:1012700043953B9543953B953B953B7543953B95F6
:101280003B953B953B953B953B953B953B953B95DE
:101290003B953B953B953B943B943B9543954395C0
:1012A00043953B953B753B753B743B943B943B941A
:1012B0003B743B743B743B743B743B743B743B74B6
:1012C0003B743B743B743B743B743B743B743B9486
:1012D0003B943B953B753B743B743B753B943B9413
:1012E0003B943B943B953B95439543B543953B9449
:1012F0004394439443944394439443944394439436
:101300003B953B953B953B7543753B753B753B75F5
:101310003B543B543B543B543B743B743B543B74F5
:101320003B543B543B743B543B543B543B743B75E4
:101330003B753B753B753B753B753B753B763B960B
:101340003B753B763B763B763B763B753B753B7519
:101350003B7543763B763B753B753B753B753B7503
:101360003B753B75439543B643B643B6439643B688
:101370004396439643964396439643B64396439685
:10138000439643B64BB64BB64BB64BB64B964B96C5
:101390004B964B964B964B964B964B964B964B9645
:1013A0004B964B964B964BB643B643B543B64395D7
:1013B00043B543D643B643D643D543B643B543B608
:1013C00043D643B643B643B643D643D643D643D6B5
:1013D00043D643D643D643D643D643D643D643B665
:1013E00043D643B643D643D643B643D543D643D676
:1013F00043D643D643B643D643D643D643D643D645
:1014000043D643D643D643D643D643D643D643D614
:1014100043B643B543D543B543B543B5439543952B
:10142000439543954BB64BB64BB64BB643B643B616
:1014300043D643B643B643B643B643954395439527
:1014400043954395439543954395439543954395DC
:101450003B953B9543953B9543953B743B943B743F
:101460003B743B743B743B743B743B743B743B7404
:101470003B743B743B7443743B743B74439443949C
:10148000439443744394437443743B743B743B747C
:101490003B743B743B743B743B743B743B743B74D4
:1014A0003B743B743B743B743B743B743B744374BC
:1014B000439443943B743B743B7443743B743B745C
:1014C0003B743B743B743B74439443943B733B7356
:1014D0003B733B733B9343934394439443944395AF
:1014E0004394439543953B553B553B543B543B54A8
:1014F0003B543B543B543B543B543B543B543B5474
:101500003B543B543B543B543B543B543B543B5463
:101510003B543B543B543B553B543B543B543B7531
:101520003B753B753B553B543B753B753B753B757C
:101530003B753B753B753B553B553B543B543B54CE
:101540003B543B543B753B753B743B753B753B755E
:101550003B753B753B753B75437543753B753B75FB
:10156000439543B64BD64BD64BD64BD64BB64BB624
:101570004B9653B74BB74BB74BB74BB74BB74BB774
:101580004BB74BB74BB64BD64BD64BD64BB64BB6F1
:1015900043D64BD64BD643D643D643D643D643B693
:1015A00043D643D643D643D643D743D743D743D76F
:1015B00043D743D743D743D743D643D643D643D65F
:1015C00043D643D643D643D643D643B543D643B694
:1015D00043B63BB643B643B643D543B643D643B60C
:1015E00043B643B643B643D643B643D643B643B6F3
:1015F000439543B543B5439543954395437543950B
:10160000439543754395439543954395439543B619
:1016100043B643B543B543B643B543953B754375B0
:10162000437543754375437543954395439543947B
:101630003B94439443943B943B943B743B743B7482
:101640003B733B733B733B733B733B733B733B732A
:101650003B743B743B743B743B533B733B733B7336
:101660003B733B733B743B533B743B533B533B5388
:101670003B533B533B533B533B533B533B533B53FA
:101680003B533B533B533B533B533B533B533B54E9
:101690003B533B533B533B533B533B533B533B74B9
:1016A0003B533B533B733B733B733B733B733B730A
:1016B0003B733B733B733B733B733B733B743B74B8
:1016C0003B743B753B75437543753B5543753B54C4
:1016D0003B543B543B543B543B543B543B543B5492
:1016E0003B543B543B543B543B543B533B543B33A4
:1016F0003B343B343B343B543B543B543B543B54D2
:101700003B543B343B543B543B543B543B543B5481
:101710003B543B543B543B543B343B543B543B5471
:101720003B543B543B743B543B5433543B543B5429
:101730003B743B543B543B543B543B543B543B5411
:101740003B753B7543F64BF64BF64BD74BD74BD718
:1017500053D753B753D74BD74BD74BD753D74BD779
:101760004BD74BB74BD74BD64BD64BD64BD64BB6AE
:101770004BD64BD64BD64BD64BD643D643D643D679
:1017800043D643D643D643D643D743D743D643D68F
:1017900043D643D743D643B743D643F643F643D65F
:1017A00043D643F643D643D643D643D643B643B691
:1017B0003BB63B963BB53BB543B543B543B643B6A5
:1017C00043B643D643B643D643D643D643D643B6B1
:1017D00043B5439543954395439543954375439549
:1017E0004395439543954395439543954395439539
:1017F000439543954395439543953B953B753B7482
:101800003B743B743B743B744374439543953B94E6
:101810003B733B733B933B733B933B733B733B7318
:101820003B733B733B733B733B733B733B733B7348
:101830003B543B543B543B533B733B533B533B5315
:101840003B533B533B533B533B533B533B533B3348
:101850003B533B533B533B533B533B533B533B5318
:101860003B533B533B533B533B533B533353335318
:101870003B5333333B533B533B533B5333333B3368
:10188000333333333B533B533B533B523B533B5339
:101890003B533B533B533B533B533B533B543B54D6
:1018A0003B543B543B543B743B543B543B543B34C0
:1018B0003B343B343B343B333B333B333B333B5395
:1018C0003B5333533B533B533B533B333B333B3310
:1018D00033343B333B343B543B343B343B34333481
:1018E0003B343B343B343B343B3433343334333498
:1018F00033343B543B343B543B343B543B543B54D8
:101900003B543B543B543B743B743B54335433542F
:1019100033543B543B743B543B543B543B543B5437
:101920003B543B544BF74BF74BF74BF74BD74BD74D
:101930004BB74BD74BD74BD74BD74BD74BD74BB7D7
:101940004BD74BD74BB74BD64BD64BD64BF64BD68C
:101950004BD64BD64BD64BD64BD643B643D643D6B7
:1019600043D743D743D743D743D743D743D743D7A7
:1019700043D743D743D743D643D643D643D643B6BC
:1019800043D643D643D643D643D643D63BB63BB6DF
:1019900043B63BB63BB63BB543B5439543B543B6BB
:1019A00043B643D643D643B643B643B643B643B62F
:1019B00043B643B643B64395439543954395439504
:1019C000439643B543954395439543954395439536
:1019D000439543954395439543953B953B953B7480
:1019E0003B743B743B543B743B743B743B743B73A0
:1019F0003B733B733B733B733B733B733B733B7377
:101A00003B733B733B733B733B733B733B733B7366
:101A10003B743B743B743B733B533B533B533B33F3
:101A20003B333B533B5333323B533B533B533B538F
:101A30003B533333333333333B533B533B533B53AE
:101A40003B53335233533353335333533B53335357
:101A50003B533B533B333B333B333B333B533B5297
:101A60003B533B3333523B523B52333233323B33A3
:101A70003B323B323B323B523B533B333B333B13DA
:101A80003B333B333333335333533B333B333B33BE
:101A90003B343B333B333B12331333333333333336
:101AA0003333333333333333333333333333333306
:101AB00033333333333333333B333333333333130E
:101AC00033343333333333333333333333333333E5
:101AD00033333B543B543B543B543B543B543B54B7
:101AE0003B543B543B543B543B753B543B543B545D
:101AF0003B543B543B543B543B543B543B543B546E
:101B00003B543B544BD74BD74BD74BD74BD74BD7EB
:101B10004BD74BD74BD74BD74BD74BD74BD74BD7B5
:101B20004BD743B743D743D643D64BD64BD64BD6EA
:101B30004BD643D643D54BB64BB643B643D643B646
:101B400043B63BB63BB643B743B643D743D743D779
:101B500043D743D743D743D743D63BD643D643B6E1
:101B600043D743B643B643D643D63BD63BB63BB545
:101B70003BB63BB63BB63B953B9543B5439543954A
:101B800043B543B543B54395439543954395439535
:101B9000439543954395439543953B9543754375CD
:101BA0004395439543954395439543954395439575
:101BB0003B953B954395439543953B953B953B74AE
:101BC0003B543B753B543B743B543B543B743B533D
:101BD0003B533B733B733B733B733B533B533B5315
:101BE0003B533B533B533B533B533B533B533B5385
:101BF0003B333B533B533B533B333B333B533B33F5
:101C00003B533B533B533B533B533B533B533B5364
:101C10003B533B533B533B533B533B533B533B5354
:101C20003B5333533352335333533332335333539E
:101C300033533B323B333B3333323B333B323B5208
:101C40003B523B523352335233323B323B323B32C4
:101C50003B323B323B5233523B323B323B323B33E3
:101C60003B533B533B5333523353335333533B3345
:101C70003B333B333B323B133B133333333333334D
:101C800033333353335333533B33333333333333BC
:101C90003333333333333333333333333312333335
:101CA00033333B333333333333333312331233333E
:101CB0003333333333333333333333133333333314
:101CC000333333133313333333333B343B343B54E9
:101CD0003B543B5433343334333433343B343B336D
:101CE0003B333B344BB74BB74BB74BB74BB74BB70B
:101CF0004BB74BB743B743B743B743B743B743D7E4
:101D000043B743B743B643D643D643D643D64BF641
:101D10004BF643D643F643D643B643B643B643B633
:101D200043B63BB63BB63BD743B643D743D743D77F
:101D300043B643B643B643B63BD63BD643D63BD673
:101D400043B743B643B643D643D63BB53BB53BB5A5
:101D50003BB63BB53B953B953B9543953B954395B2
:101D6000439543953B953B953B95439543953B95D3
:101D70003B9543953B7543954395439543954375F3
:101D80003B753B753B953B753B753B9543953B954B
:101D90003B953B953B753B743B743B743B543B54C8
:101DA0003B543B5533543B543B543B543B543B53C3
:101DB0003B533B533B533B533B733B533B533B5393
:101DC0003B533B533B533B53333233323332333247
:101DD00033323332333233323B333B333B333B5397
:101DE0003B533B533B533B533B533B533B533B5383
:101DF0003B533B533B533B533B533B533B533B5373
:101E00003B533352335233523353335333323332DF
:101E10003352333233323332333233323333333378
:101E200033323332331233323332333233323B32A2
:101E30003B523B523B523B323B313B113B113B123D
:101E40003B1233323332335233523B333B3333134F
:101E50003B133312331232F232F233123312331293
:101E60002B122B122B122B12331232F2331233128B
:101E700033123312331233123333331233123333F8
:101E80003333333333333333333333323333333323
:101E90003333331233123312331233333333333396
:101EA0003333331333133333333333133313333382
:101EB0003313333333333333333333343333333311
:101EC000333333334BB74BB74BB74BB74BB743B643
:101ED0004BB743B743B743B743B743B743B743D70A
:101EE00043B743B743D643B643B643D643D643D6A8
:101EF00043D643D643B643B643B643B643B643B6DA
:101F000043D63BB63BB63BD743D743D743B63BD686
:101F10003BB63BB63BB63BD63BD63BD63BD63BD699
:101F20003BB63BB63BB63BB63BB63BB53BB53B954C
:101F300043B53B953B953B753B753B953B953B9539
:101F40003B95439543953B954395439543954395E1
:101F50003B953B953B953B753B753B753B953B7581
:101F60003B953B7543953B753B753B753B753B75A9
:101F70003B753B753B553B543B753B543B553B34A4
:101F80003B343B343B343B343B343B343B343B33DA
:101F90003B333B533B333B533B533B333B333B3371
:101FA0003B533B533B533B533B533B533B533B53C1
:101FB0003B533B533B533B533B333B533B533B33F1
:101FC0003B533B533B533B533B533B533B533332CA
:101FD0003B533333333333333333333333333333A9
:101FE00033333352333233523B533332335233521F
:101FF0003352335233323332333233323333333278
:102000003313331233122B12331132F1331032F0F7
:1020100032F032EF32F032F03AF03AF03AF03AF190
:102020003311333133323332331233123312331329
:10203000331232F232F232F232F232F2331232F23E
:1020400033122AF22B12331232F232F2331232F2FC
:1020500032F22AF1331232F22B122B122B123312DC
:102060002B122B1233122B12331233123332331240
:10207000333233133312331233122B13331333131C
:1020800033132B132AF22AF22AF22B132B132B13BE
:102090002B132B132B132B132B132B133312331242
:1020A000331333124BD74BD74BD74BD743D743D7E9
:1020B00043D643B643D743D743D743D743D743D772
:1020C00043B743B743B743B643B643B643B643B645
:1020D00043B643B543B543B643D643B643B63BB622
:1020E0003BB63BB63BB63BD63BD73BD63BD63BB6E7
:1020F0003BB63BB63BB63BB63BD63BD63BD63BB6F8
:102100003BB63BD63BB63BB53BB543B63B953B9563
:10211000439543953B953B753B953B753B753B958F
:102120003B9543953B953B753B753B753B753B75C7
:102130003B753B753B753B743B743B543B743B7444
:102140003B543B543B543B543B543B543B543B5417
:102150003B543B543B543B543B3433543B343B346F
:102160003B343B343B343B343B343B343B343B33F8
:102170003B333B333B333B333B333B333B343B33EE
:102180003B533B533B533B533B533B533B533353E7
:102190003B533B533B533B533B533B533B533B53CF
:1021A0003B533B533B533B533B533332333233323A
:1021B00033323332333233323332333233323332F7
:1021C00033323332333233323352335233323332A7
:1021D0003332333233323352333233523333333395
:1021E000331233133312331132F02ACF2AAE2AAD11
:1021F0002A8D2A6D2A6D2A4D328E3AF03AD032CF8E
:1022000032D032F033113311331232F232F232F271
:1022100032F232F232F232F132F232D132F12AF1CA
:102220002AF12AF12AF12AF12AF12AF12AF132F1CE
:1022300032F232F232F232F22B122B122AF12AF15E
:102240002B122AF22AF12AF132F12AF132F232F279
:1022500032F233123312331233122B122B122B128F
:102260002B122B122B122B122B122B122B122B1286
:102270002B122B122B122B122B122B1232F232F2A8
:102280003312331243B743B743B743D643D643D68B
:1022900043D643B643D643D743B743D743D743D7B1
:1022A00043D743D743B643B643B643D643B643D6E4
:1022B00043B643B543B63BB53BB53B953B953BB5C4
:1022C0003B953BB543B643D63BB63BB63BB63BB678
:1022D0003BB63BB63BB63BB63BD63BD73BB63BB635
:1022E0003BB743B63BB63BB53B953B953B953B95E2
:1022F0004395439543953B753B753B953B953B9586
:102300003B953B753B753B753B753B753B753B752D
:102310003B753B743B543B543B743B533B543B54E5
:102320003B543B343B533B533B343B333B533B33BA
:102330003B33331333133B333B333B133B133B33BD
:102340003B333B333B33331333133B133B133332B6
:102350003B333B33333333133333333333333B3355
:102360003B533B533B533B533B5333333332333277
:10237000333333323333333333333333333333332E
:1023800033323332333233323332333233323B53FC
:102390003332333233323332333233323332333215
:1023A00033323332333233323332333233122B124D
:1023B00033122B122B1233123312331232F232F247
:1023C00032F232D132D132CF32AF2A6C222B220AF2
:1023D00021C919A921CA21CA2A0B326D3AAE3AAFD6
:1023E0003ACF32F032F0331132F132F132F232D2EE
:1023F00032F232F232F132D132D132D132D132D163
:1024000032D12AD132D12AD132D132D132D132D1C4
:1024100032D132D132D132D12AF12AF12AD12AD184
:102420002AD12AD12AD12AF12AF12AD12AD12AD194
:102430002AF12AD12AF132F232F22AF22AF12AF1D1
:102440002AF22AF12AF12AF22B122AF232F232F27D
:102450002B122AF22B122AF22AF22B122AF232F231
:1024600033122AF243B743B743D743B643D643D6D2
:1024700043D643D643B643B743B743B743B743B74F
:1024800043D743B743B643B643B6439643B643B682
:1024900043B643B543B63BB53BB53BB53B953B95E2
:1024A0003B953BB63BB63BB63BB63BB643963BB6DD
:1024B0003BB63BB643963BB63BB63B963B963B960C
:1024C0003B963B963B953B953B953B953B95439582
:1024D00043953B95437543753B753B543B543B5487
:1024E0003B5443753B753B5543543B753B753B74BF
:1024F0003B743B543B5433533B533B3333323B33BA
:102500003B333B334333433343133B123B333B3285
:102510003B123B123B123B123B333B333B333B32D0
:102520003B333B333B333B123B323B323B323B3260
:102530003B32333233123312331333133313333307
:102540003B3333333B533B533B53333333323332DD
:102550003332333233323332333233323332333253
:1025600033323332333233323332333233323B531A
:102570003332333233323332333233323332333233
:10258000333233323332333233322B122B112AF1BE
:102590002AF12B112AF12AD12AD132F132F132D18A
:1025A00032B032AF326E2A4D2A0B21C92188196709
:1025B0001926192719272148218929AA3A2C3A8E48
:1025C0003ACF3AAF32CF32D132D132D132D132D208
:1025D00032D132F132D132D132D132D132D12AD1CB
:1025E00032D132D132D132D132D132D132B132D1F3
:1025F00032D12AD12AB12AB12AB12AB12AB12A90DC
:102600002AB12AB12AB12AB12AB12AB12AB12AB1F2
:102610002AB12AB12AB12AB12AB12AD12AD12AD182
:102620002AD12AD12AD12AF132F232F132D12AF139
:102630002AF132F232F233122B122B1133123312EF
:1026400033122AF143B743B743B643B643B643D632
:1026500043D643D543B643B643B643B63BB63BB683
:1026600043B743B643B643B63BB63BB63B9643B6D9
:102670003BB63B963BB53BB53BD53BB53BB53BB6D7
:102680003BB53BB53BB53BB63B963B963B963B9645
:102690003BB63B963B963B963B963B963B773B76D1
:1026A0003B763B763B953B953B953B953B953B95E8
:1026B0004395439543753B7543743B543B543B549E
:1026C0003B543B753B753B543B543B553B743B740F
:1026D0003B743B543B533B533B533B533B333B32A9
:1026E000433343333B124312431242F23B123B113A
:1026F0003B113B113B113AF13AF13B113B113311C4
:102700003331331133113311331133113311333169
:1027100033113312331232F2331233123313333391
:10272000333233333B533B533B533B5333333B32D3
:102730003332333233323332333233323332333271
:102740003332333233323332333233323332333261
:10275000333233323332333233322B123332333279
:1027600033322B122B122B122B1233122B112AF174
:102770002B1132F132D12AD12AD032D032CF32B01D
:1027800032AF2A6E324C29EB21A9196719251105A0
:1027900018E518E618E618E6190721482989320CC9
:1027A0003A6D328D32AE32B032D132D132D132D1F5
:1027B00032D132F132F12AD12AD12AB12AB12AB149
:1027C0002AB12AB12AB12AB12AB12AB12AB12AB131
:1027D0002AB12AB12AB12A902A902AB02AB12A9085
:1027E0002A912A9022702A70229022902290229080
:1027F000229022902A90229022902AB02AB02AB0C9
:102800002A902AB022B02AD12AD12AD12AB12AB1BB
:102810002AD12AB12AD12AD12AD12AD12AD12AF1E0
:102820002AF12AF143B643B643B643B643B643D67C
:1028300043D643D543B63BB63BB63BB643B63BB6B1
:1028400043B743B63BD743B643B63BB63BB63BB6BE
:102850003B953B953B953BB53BB53BB53BB53BB558
:102860003BB53B953B953B963B953B963B963B96C4
:102870003B963B963B963B953B963B763B763B7631
:102880003B763B753B75437543953B953B9543754F
:10289000439543753B743B7443753B543B543B54E5
:1028A0003B543B753B543B543B543B553B743B546E
:1028B0003B543B54335333533B5333323B323B1142
:1028C00032F13AD032D032B032B0328F32AF32AF92
:1028D00032AF32AF32AF32AF328F328F32AF2ACF18
:1028E0002AAF2AAF2AAF2AAF2AAF2ACF2ACF2AD0BF
:1028F0002AF032D02AD032F132F23312331233328C
:102900003333333233333B53333233323332333274
:10291000333233323312331233123312333233122F
:1029200033123332333233123332333233323332BF
:102930003332333233322B122B122B122B122B1237
:102940002B122B112B122B122B122B122AF12AF1E4
:102950002AF12AF12AD12AB02AB032B02A8E2A6E60
:102960002A4D2A2C29CA2188194710E510E418E4B9
:1029700018C520C518C518C510C518C6190721895E
:10298000320C322C326E2A8F32B032D132D12AB18F
:1029900032D12AD12AB12AB02AB02AB02AB02AB01C
:1029A00032B032B032B032B132B02AB02AB02AB02E
:1029B0002A902A902A902A902A902A902A902A9047
:1029C0002A902A6F226F226F226F226F227022704C
:1029D000226F229022702290226F226F227022702A
:1029E0002270226F226F226F226F22702A702A704B
:1029F0002A6F2270226F227022902290229022B0A1
:102A00002AD12AD13BD73BB643B643D63BB63BB6D9
:102A10003BB643B53BB63B953BB53BB63BB63BD728
:102A20003BB73BB73BB643D73BB63BB63BB63B9514
:102A30003BB53B953B953B953B953B953B953B95F6
:102A40003B953B953BB53B953B753B753B7543755E
:102A50003B753B753B753B75439543953B753B75A6
:102A60003B753B753B753B753B753B553B553B5546
:102A70003B553B553B543B743B543B743B743B745C
:102A80003B543354335433543B543B5433543354F6
:102A90003B543B333B333332331232F12AEF2AAE0D
:102AA0002A6D2A4D2A2C2A2C222C222B222B2A0B4F
:102AB0002A0B2A0B2A0B2A0B2A0B222B222B222C25
:102AC000224C224C224C222C222C224C226C2A4DAD
:102AD0002A6D2A6E2A8F32D03311331133113312FB
:102AE0003312331133113311333233122B1232F2CA
:102AF0002B122B122B122B122B112B112B112B12F1
:102B00003311331133112B112B11331133113311B5
:102B100033112B113311331132F2331133123311BC
:102B200033112B112B112B112B112B112AF12AF1FF
:102B30002AF12AF02AF02AB03290326F322E322D4A
:102B400029EB21AA1947110610E5110510E410E43C
:102B500010E418E410C510C510C510C410C519261E
:102B600021A92A0C324E3A8E32AF32D032F032F1F5
:102B70002AD02AD032B032B032B02AB02AB02A904D
:102B80002A902A902A902A902AAF2AAF2AAF2AAFF9
:102B90002AB02A8F2A8F2A8F2A8F2A8F2A8F2A8F4C
:102BA000228F226F226F226F226E224F2A4F224FD6
:102BB000224F224F224F224F224F224E224F224F8E
:102BC000224F226F226F226F226F2A6F2A6F2A6F85
:102BD0002A6F2A6F2A6F2A6F2A702A702270227039
:102BE0002A902A903BB63BB63BB63BB63BB63BB6CB
:102BF0003BB53BB53BB63B953BB63BB63BB63BB670
:102C00003BB73BB63BB643B63BB63BB63B953B9575
:102C10003BB53B953B943B953B953B953B953B9515
:102C20003B953B953B953B953B753B753B753B75A4
:102C30003B753B753B753B75437543753B753B5524
:102C40003B553B553B553B553B553B553B553B5504
:102C50003B553B543B753B543B543B543B543B54DA
:102C60003B543354333333333354333433343334C6
:102C700033533333333233112B1022CF22AD1A4C5E
:102C80001A2B21EB21AA21A919A919A919A9198976
:102C90001969196919891989198919A919A919AA03
:102CA00019A919C919CA220B19EB21EB220B21EB27
:102CB000220B220B222C2A4D2A8E32AF32AF32D079
:102CC00032F032F032EF2AD032F0331132F22AF100
:102CD0002AF22AF22AF22AF12AF12AF12AF12AF119
:102CE0002B112AF02AF02AF12AF12AF12AF12AF1ED
:102CF0002B11331132F12B112AF12AF12B112AF069
:102D00002AF12B112B112B112AF12AF12AF132F180
:102D10002AF12AF02ACF32AF328F322E2A0C21CB61
:102D20002169192810E510E5110610E518E518E5E8
:102D300018E410C410C510C510C410C410C410E5A8
:102D40001127218A2A0C326D328E32AF32D02AD02E
:102D50002AD02AB032B02AB02AB02AB02A8F2A8FBD
:102D60002A8F2A8F2A8F2A8F2A8F2A8F2A8F2A8F9B
:102D70002AB02A8F2A8F2A8F228F228F2A8F2AAF5A
:102D80002A8F226F226F226F226F226F2A6F2A6F83
:102D90002A6F2A6F2A6F226F2A6F224F224E224EED
:102DA000224F224F226F226F2A6F2A6F2A6F2A6FBB
:102DB0002A6F2A702A6F2A6F2A6F2A6F2270227058
:102DC00022702A903BB63BB63BB643B63BB63B952A
:102DD0003BB53BB53BB53B953BB63BB63BB63B96AF
:102DE0003B963B963B963B963B963B753B953B759E
:102DF0003B953B943B943B753B753B753B753B75F5
:102E00003B753B753B953B753B743B753B753B7523
:102E10003B953B753B753B753B753B753B543B7434
:102E20003B743B743B743B743B753B553B553B5586
:102E30003B553B543B543B543B543B543B543B5419
:102E4000335433333333333333333B343B343B54F6
:102E5000333333322B1022EF22CE1AAD1A8C122BC1
:102E600011C9116819681948194819681968116752
:102E7000194719471948196819471947114711483F
:102E800011681968194819681989198919891988DF
:102E90001988198921CA21EA2A0C2A4C2A2C224C89
:102EA000226D226D2A6D2A8E2A8E2ACF32F032F1BF
:102EB0002AD132F12AF12AF132D132F12AD02AD0A4
:102EC0002AD022D022B02AD02AD02AF02AF12AF100
:102ED0002B112B102B102B102AF02AF02AF02AF09D
:102EE0002AF02AF12AF12AF132F132F132F12AD014
:102EF0002AB02AB02A8F2A6E2A2D29CB21AA194856
:102F0000110610E618E510C518E518E518C418E50F
:102F100018C418C410C410A410A410A410C410C560
:102F200008C6112821AA2A0B328D328E32CF2AD020
:102F30002AD02AB032B02A902A902A8F2A8F2A903B
:102F40002AB02AB02AB02A902AB02AB02AB02AB0D1
:102F50002A6F226F226F226F226F228F228F2A8F79
:102F60002A8F226F226F228F226F2A6F2A6F226F81
:102F70002A6F2A6F2A6F2A6F2A6F226F226F226FA1
:102F8000226F224F226F224F2A6F2A6F2A6F2A6FD9
:102F90002A6F2A6F2A6F2A6F2A6F2A6F2A702A7067
:102FA0002A702A7043B643B643B643B643B63B9540
:102FB0003BB53BB53BB53B953B953B953B963B962F
:102FC0003B963B763B763B963B763B763B753B753B
:102FD0003B953B743B743B753B753B753B753B7553
:102FE0003B753B753B753B753B543B543B543B54E5
:102FF00043543B553B543B543B543B543B543B5450
:103000003B543B543B543B543B543B753B753B75E5
:103010003B543B543B543B543B543B543B543B5438
:103020003B543B5433543B3433543B3433343333C9
:1030300033322B101B0E12CC12CC12AB128B0A495E
:1030400009E8096711471126110610E61106112635
:1030500011061106110610E510E51105110610E61E
:1030600010E610E610E610E6110611061107192603
:103070001946194719672188218921A9218919A988
:1030800011C911C91A0A224B2A6C2A6D2A6E2A8F7D
:1030900032B032D132D132D032D032D02AD02AAF6F
:1030A000228F226E228E22AF2AD02AF032F132F104
:1030B00032F12AF02AF02AF02AF02AF02AF02AF037
:1030C0002AF02AF02AD02AF02AD032F032B032B0D8
:1030D00032B0328F2A6D2A2C21CB21A9212810E66B
:1030E00010E510C418E510C518C518C418A418C4F4
:1030F00018C418A410A410A410A410A410C410C5BF
:1031000008C508E6112721AA324D328E32AF2AD0E7
:103110002AD02AB02AB02A8F2A8F2A8F2A8F2A6F84
:103120002A6F2A6F2A6F2A6F2A8F2A6F2A6F2A8F97
:103130002A6F226F226F226E228F228F228F228F80
:10314000228F226F226F226F2A6F2A6F2A6F226FBF
:103150002A6F2A6F2A6F2A6F2A6F226F226F226FBF
:10316000226F224F226F226F2A6F2A6F2A6F2A6FD7
:103170002A6F2A6F226F226F226F226F22502270D5
:103180002270227043B5439543B5439543953B95D3
:103190003B953B953B953B953B953B953B753B95CF
:1031A0003B763B763B763B553B553B753B753B74DD
:1031B0003B743B743B743B743B753B753B743B7495
:1031C0003B743B743B743B7443543B753B753B759C
:1031D0003B753B753B743B753B743B753B743B7473
:1031E0003B543B543B543B543B543B753B543B5446
:1031F0003B753B543B543B543B5433543B543B543E
:103200003B54333333333333333333133B342B12A5
:103210002B301B0E12CC132C134C132B0AEA0AAAC8
:103220000A4909C709871146110519061105110533
:1032300010E510E510E510E518E510E510C510C51E
:1032400010C510C510C510E510C510E510C5110555
:1032500011051105192619251926192619061126F1
:103260000946114619A721C9220A2A2C324C2A6D77
:103270002A6E328F328F328F328F2A6F2A8E224DF2
:103280001A2C1A2C1A2D226E2AAF32D032D032D0FC
:103290002AD032D02AD02AD02AD12AD02AD02AD055
:1032A0002AD02AD02AD032B032B032AF32AF32AFC9
:1032B00032AF2A4D2A0C21AA1968190710E610E529
:1032C00010E410E418C518C518A410A410A418A47C
:1032D00018A418C418A410A418C410A410C410C4AE
:1032E00010A408C508C51927320B324D326E2AAF1B
:1032F0002AAF2AB02A8F2AB02AB02A8F2A8F2A6FA3
:10330000226F226F226F226F226F226F226F226F35
:103310002A6F2A6F2A6F2A6F228F226F226F226FE5
:10332000226F228F228F228F228F2A6F2A6F2A6F7D
:103330002A6F2A6F2A6F2A6F2A6F226F2A6F2A6FCD
:103340002A6F2A6F2A6F2A6F226F2A6F2A6F2A6FBD
:103350002A6F2A6F2A6F226F224F224F224F226F2D
:10336000224F226F439543954395439543953B9553
:103370003B953B953B953B953B943B953B953B76ED
:103380003B763B7643763B553B7543553B753B540B
:103390003B543B743B743B54435443543B543B5465
:1033A0003B543B543B543B743B543B553B543B5484
:1033B00043553B543B543B543B543B543B543B548C
:1033C0003B543B543B543B543B743B753B753B7502
:1033D0003B743B743B543B5433543B5433543B5445
:1033E0003B543B54335433543353333333332B3103
:1033F000230F0ACC1B8D45125DD455F555933C9097
:103400001B4C128911E71186114611251105112552
:10341000190518C418C418E518E518C518E518C525
:1034200018C518C518E518C510E510E510E510E435
:1034300010E410E410E510E510E5110510E510E5C5
:103440000904090511451166198821C929EA2A2CA0
:103450002A2C324D324D2A4E2A2D2A4E2A4D19EB56
:1034600011CA11CA11CA1A0C224D2A6E32AF32AFDC
:103470002AAF32B032B032B032B032B032B032B045
:1034800032B02AAF2AAF32AF32AF328F328E326EC5
:10349000324E2A0B21CA1968112718E510C410C42E
:1034A00010C410C410C418A418A418A418C418A4D4
:1034B00018C418A410C410A410A410A418C410C4D4
:1034C00010A408C408C410C5218829EB328D2A6EC7
:1034D0002A8F2A8F2A6F2A8F2A8F2A6F2A6F2A6FA4
:1034E000226F2A6F2A6F226F2A6F2A6F2A6F2A6F24
:1034F000226F2A6F2A6F2A6F228F226F228F228FCC
:10350000226F228F228F228F228F2A6F2A6F2A6F9B
:103510002A6F2A6F2A6F2A6F2A6F226F2A6F2A6FEB
:103520002A6F2A6F2A6F2A6F226F226F226E2A6EED
:10353000226E226F2A6F226F226F226F2270226FFB
:10354000226F227043754395439543753B953B75B8
:103550003B953B753B953B953B953B753B753B756B
:103560003B75435543563B753B753B553B753B742B
:103570003B543B743B743B543B753B753B743B7510
:103580003B543B753B753B753B543B543B543B5460
:103590003B553B543B543B543B343B343B343B3432
:1035A0003B543B543B343B343B543B543B543B54E3
:1035B0003B543B543B543B5433533B543B543B549C
:1035C0003B543333333333333334333333322B31AC
:1035D0001B0D130C3CB16ED887BB87BB879B76D87D
:1035E0005DB42BCD128909C61186094511451125F7
:1035F00010E518E418C418E518E518C418E518C54E
:1036000018C518C518E518E510E510E410E510E434
:1036100010E410E410E4110510E510E510E510C405
:1036200010E410E41104110519261947218829C94D
:103630002A2A324C322C2A2D2A2D2A2C220B11A96F
:1036400009680968096811CA19EB222C2A6E328FA1
:103650002A6E2A8E2A8E2A8E2A8E2A8E2A8E2A6EEA
:103660002A6E2A8E2A8E2A8E2A8E326D326D324D25
:10367000322C21CA19681126110510C410C410C4B7
:1036800010C410C410A410A410A410C410C410C4FA
:1036900010C410A410A410A418A418A418C410A432
:1036A00010C408C410C410A410C529CA2A2C2A6D3D
:1036B0002A8E2A8F2A8F2A6F2A6F2A6F226F226FF3
:1036C0002A6F2A6F2A6F2A6F2A6F2A6F2A6F226F3A
:1036D0002A8F2A6F226F2A6F228F228F228F228FAA
:1036E000228F228F228F228F228F2A6F2A6F2A6F9A
:1036F0002A6F2A6F2A6F2A6F2A6F226F2A6F226F12
:103700002A6F2A6F2A6F2A6F224F226E226E226E34
:10371000226F226F226F226F226F226F228F228FE1
:10372000228F228F437443754375437543953B95B0
:103730003B953B953B753B953B743B743B753B55CB
:103740004355435543553B753B753B754375435452
:103750003B543B743B743B543B543B543B543B54B1
:103760003B543B543B543B5443553B543B553B55D6
:103770003B5543543B543B343B543B543B543B54E8
:103780003B543B543B543B543B34335433543354F9
:1037900033543333335433533B543B543B543B54F3
:1037A0003B54333333333333333333332B11230F1E
:1037B000130D23EE5DF587BB8FFC8FFC8FFC8FDC38
:1037C0008F7B6E163C0E1289120709861946112549
:1037D00018E518E418E518E518E518C418E518C543
:1037E00018C510C518E510E510E510E510E510E462
:1037F00010E410E410C410C410C410C410E519057E
:103800001905192519051104110511051926218815
:1038100029C92A0A29EA21CB29EB21EB21EA11A89F
:10382000094709270947118819A919CB220C2A4DE4
:103830002A4D2A6D2A4D2A6D2A4D2A6D2A6D2A4C51
:103840002A4D2A4D2A6D2A4D2A2C222C2A2C322C24
:103850002A2B19A91147090508C410C410C410C4A3
:1038600010C410C510A410A410C410A410A410A457
:1038700010A408A410A410831083108418A418C4E2
:1038800010A410C310C418C410C5194721EA224D52
:10389000224D226F226F2A8F2A8F2A8F226F2A6F42
:1038A0002A6F226F226F226F2A6F2A6F2A6F2A6F68
:1038B0002A8F2A6F2A6F2A6F226F228F228F2A6FF8
:1038C000226F226F226F226F226F2A6F2A6F2A6F58
:1038D0002A6F2A6F2A6F2A6F2A6F226F226F226F38
:1038E000226F226F226F2A6F226F226F226E226E4A
:1038F000226E226E226E226E226F226F228F228F04
:1039000022B0228F439543754375437543754395A4
:1039100043953B753B753B753B753B553B553B555F
:103920003B553B5543753B553B553B553B553B55EF
:103930003B553B5543753B753B753B5443543B549A
:103940003B5443543B543B743B743B743B343B54B7
:103950003B543B343B543B543B533B533B543B5411
:1039600033543B543B543B533B3433543B333B5431
:103970003B543B543B543B543B543B543B543B54CF
:103980003334333433333333331333322B311AEE8E
:10399000130C348F76F88FFC8FFC87FC87FC8FFC30
:1039A00097FC8FBB6636340E12C909E709A6094693
:1039B00010E510E518E510E510E510E418E518C568
:1039C00018C518C518C518E518E518C518E510C4B8
:1039D00010E510E410C408C408A308E41925216602
:1039E000298729A829872166192619462167298749
:1039F00021A819881969218A218A21AA21A9198750
:103A0000112709060906112711471968198929CABA
:103A100021EA21CA21CA21CA21CA19CA21CA21EA16
:103A200021EA220B220B220A2A0A2A0A2A2A2A2AF5
:103A30002A0A21C81966110508E410E410E410C42C
:103A400018E510C410C418A410A410A410A410A445
:103A500010A4108310A410A410A410A410A410C4C7
:103A600010C410C410C410C408A41106198821EB96
:103A70002A4D2A4E2A4F2A702A702A6F2A4F2A6FFF
:103A80002A6F2A6F2A6F2A6F226F226E2A6E226E89
:103A90002A6F2A6E2A6F2A6F2A6F2A6F2A6F2A6F5F
:103AA0002A8F2A6F2A6F2A6F2A6F2A6F2A8F2A6F0E
:103AB0002A6F2A6F2A4F2A6F224F226F226F228F7E
:103AC000226F226F226F226F226F226F226F224F8E
:103AD000226F226F226F226F226F226F229022901C
:103AE00022902290439543954375437543754395C2
:103AF000437543753B553B553B553B553B543B55F7
:103B00003B553B5543753B553B5543553B553B5505
:103B10003B553B553B553B753B753B753B753B7486
:103B20003B743B5443543B743B743B543B543B54B5
:103B30003B343B543B333B533B543B543B543B544F
:103B400033533B543B5433343B343B533B533B5351
:103B50003B543B543B543B543B543B543B543B54ED
:103B6000333433343313331333132B122B311B0DF4
:103B70001B4C4D72877997FB8FFC87FC87FC8FFC71
:103B80008FFC8FFC8FBB663633EE1AA909E70986D6
:103B9000090510E418E51105110510E418C510C554
:103BA00018C518C518C418C518E518C518C410E5F7
:103BB00010E410E410E510E411041925218729C848
:103BC00031C831E931E831C831C829A829A821878D
:103BD0001967112710E71108112819482188218831
:103BE000194711061106110611261126112619472B
:103BF0001947196819681968194811481948196846
:103C000019681968198819A921A821A821C929E9C1
:103C100029C829C821A7198719661946110510C492
:103C200010C510C410C410A410A418C410A410A46B
:103C300010A410A410A410C410C410A410A410C484
:103C400010C410C410C410A408A408A508E519895C
:103C50002A0C2A4E2A4F2A4F2A6F2A6F2A4F2A6F80
:103C60002A6F2A6F2A6F2A6F228F226E2A6F226F85
:103C70002A6F2A8E2A6E2A6F2A8F2A6F2A6F2A6F3E
:103C80002A6F2A6F2A6F228F2A6F2A902A702A7031
:103C900022702A702A702A702A902AB12AB12AB179
:103CA0002AB12A902AB02AB02A902A902A902AB0C3
:103CB0002A902AB02AB02AB12AD12AD12AD12AD2CE
:103CC0002AF232F2439543954395437543754395E4
:103CD000437543753B553B543B543B543B543B5419
:103CE0003B553B5443753B543B543B543B543B5432
:103CF0003B543B543B553B553B753B753B753B74C7
:103D00003B743B543B543B743B543B54335433540B
:103D10003B543B743B543B5433543B543B543B5413
:103D200033543B543B54333433543B333B333B33B6
:103D30003B3333333B333B333B333B543B543354C0
:103D4000333433133313331333122B322330130D25
:103D50001BAD66568FDB8FFB8FFC87FC87FC87DBF8
:103D60008FFC8FFC8FFC8F9B65F533EE1A8911C792
:103D7000114510E418E51105110418E418E518C5FB
:103D800018C518C518C418E518C418C518C410E516
:103D900010E410E5192521462166218729A829A7C5
:103DA00029A7298729A729A829A829A82987214639
:103DB000192610E510C610E710E711061927194655
:103DC000192611061106110610E510E510E510E59B
:103DD000110611060906090610E61107110611075A
:103DE000110611271127114719471946196721870D
:103DF000218729C829C829E831C831C82187214627
:103E000019261905190518E510C410A410A410A44A
:103E100010C410C410C410C410C410A410A408A36B
:103E200010C410C410C410A410A410C408C51127D5
:103E300021AA2A2D2A4E2A4F2A4F2A6F2A6F2A6F2B
:103E40002A6F2A6F2A6F2A6F226F226F228F228F8A
:103E5000228F2A6F2A6F2A6F2A902A902A902A90FE
:103E60002A902AB02A902AB02AB12AB12AB12A91DE
:103E70002A912A912AB12AB132D232D232D232D206
:103E800032D232D232D232D232D232F132D232F2D3
:103E900032D232F233123B333B533B543B543B540C
:103EA0003B543B5443954395439543754375439524
:103EB00043953B7543753B753B553B553B543B55D3
:103EC0003B543B543B553B543B543B543B543B5479
:103ED0003B543B543B553B753B753B753B553B74E5
:103EE0003B743B543B543B543B533B543B54335443
:103EF00033543354335433543B343B343B343B34EA
:103F00003B543B543B54333333343B543B543B548A
:103F10003B3333333B5433543B543B543B54335483
:103F2000333433132B132B122B122B311AEF12EDC8
:103F30001BCD6EB78FDB87FB8FFC87FC87FC87FB75
:103F40008FFC87FC8FFC8FFC7F194D12232B1208EE
:103F500011861105190510E410E418C418C418C519
:103F600018C418C418C418E518C418C518C410E437
:103F700010E519252167298731C831C829A8298763
:103F80002967212619251926190519051905190565
:103F900010E510C510C510C618E610C510E518E5E7
:103FA000190510E510E510E510C410C510E5190558
:103FB00010E510E510E510E510E510E510E510E559
:103FC00010E508E510E510E5110610E511051905E5
:103FD00019051946214621672967298729A829A893
:103FE00029A72167216721461926190510A410C4A5
:103FF00010A410A410C410C410C408A408A408A3DA
:1040000008A310A310A3108310A310A408A410E603
:10401000196929EC2A2D2A4E2A6E226E2A6F228FC8
:10402000228F226F226F226F2270226F22902290A5
:104030002AD12AD12AB12AB12AD12AD12AD12AD1E8
:104040002AD12AF12AF132F232F22AD332F332F3B0
:1040500032F32AD232F332F3331333133B133313D5
:1040600032F33B133B133B143B133B543B743B7405
:104070003B753B743B543B753B753B753B753B75E2
:104080003B953B95439543954395437543754375E0
:104090004375437543753B753B753B553B743B74AA
:1040A0003B743B543B743B753B543B743B543B5417
:1040B0003B543B543B543B753B753B753B753B5404
:1040C0003B743B743B543B543B543B333B333B547A
:1040D00033533333333333333B343B3433343B5454
:1040E0003B543B533B543B543B533B543B543B545A
:1040F0003B543B543B333B5433543B3433543334C1
:10410000333433132B132B122B12233012CD0ACC42
:104110001C0E6ED887FB87FB87FB87FC87FC8FFC18
:104120008FFC8FFC87FC87FC8FDC76973C4F1AAAAC
:1041300011C7112510E410E410C418C418C410C429
:1041400018C418C418C418C418C418C418C510E575
:1041500019052146298729A829A729872987296799
:10416000212618E518E510C410C410C418E510C4C1
:1041700018E518E518C518C518C518C518C518C517
:1041800010C410C410C410C410C410E510C410E54D
:1041900010E518E510E510E510E510E510C510C5AF
:1041A00010C510E510E510E410E510E510E518E580
:1041B00010E418E518E518E51905190521672987A0
:1041C00029A821A7298729A829872146192510E58B
:1041D00010E510E510C408A408A408A408A308A4C6
:1041E00008A308A3108310A3108310A410A410C662
:1041F000112721AA2A2C2A4D2A6E2A8E2AAF2AB0EC
:104200002AB02AB02AB02AB02AB12AB12AD12AD19A
:1042100032F2331232F233122B13331333133313BC
:104220002B12331333133333333333143314333404
:104230003334333433343B543B7543753B753B5512
:104240003B753B753B553B753B753B753B753B750E
:104250003B753B753B953B963B753B753B953B757D
:104260003B953B95439543954395439543754375DE
:104270004375437543753B743B543B543B743B74EB
:104280003B753B743B7443753B743B743B543B74CC
:104290003B543B543B543B553B753B753B543B7443
:1042A0003B743B753B543B543B543B543B333B5377
:1042B00033333312333233323B133B1333133B3339
:1042C0003B5433543B543B5433533B543B543B5487
:1042D0003B343B333B543B3333333B343B34333459
:1042E000333333332B122B322B31233012ED0AECC4
:1042F0002C9077398FFB87FB87FB8FFC87FB8FFC2C
:104300008FFC8FFC87FC87FC8FFD877B5DB42B8C3B
:1043100012481186090408E410C318C318C410E435
:1043200018E518E518E518E518E518C418E51105AD
:104330001946298731E831C82967212621262126F7
:10434000190518E510C418C510C418E518C418C418
:1043500018E518C518E518C418E518C518C418C418
:1043600010C410C410C410C410C518C518E518E452
:1043700018C518C518E418E418E510E410C410C4F2
:1043800010C410C410C410C410E518C518C518C551
:1043900018E518C418C518C518E518E51905192633
:1043A00021461926216729A829A829A82987216734
:1043B00021461926190510E510C408A408A410C444
:1043C00010A410A310A310A31083108410A508A597
:1043D00010E6194821EB2A2C2A6D2AAF2AD02AD1BF
:1043E0002AD12AD12AD132D132F232F333133333E4
:1043F0003B3433543B343354333433343334333435
:1044000033543B543B753B753B753B553B553B55D6
:104410003B553B553B553B753B7643764376437561
:10442000437643764376437643563B963B963B959D
:104430003B963B963B763B763B7643963B96439644
:1044400043964396439543954395439543754375EA
:104450004375437543753B743B743B543B743B74E9
:104460003B743B743B543B753B743B743B543B7413
:104470003B743B743B753B753B553B543B543B5441
:104480003B543B543B543B543B543B343B533B32F7
:1044900032F12AD032B032D02AD032F132F1331296
:1044A000333333333353335433543B343B333B5440
:1044B0003B543B543B5433333B3333343314333367
:1044C000333333332B322B322B31232F12CC02CB0D
:1044D0002CB17F5A87FB87FB8FFB8FFC87FC8FFCFF
:1044E0008FFC8FFC87FC87FC8FFC97DC7EF944B047
:1044F0001ACA11E70945090408C310C310C310E420
:1045000010C410C410E410E410C418C410E51966F7
:10451000218729C731C82987212610C418C418E566
:1045200018C510C418C418C518C418C418C418C4B1
:1045300018E518C518E518C418C418C418C510C45F
:1045400010C410C410C410C410C410C410C410C4CB
:1045500010C410C410C410C410C410C410C410C4BB
:1045600018C410C410C518C418E518C518C518C556
:1045700018E518C518C418C418C418C510C410C448
:1045800010C410C418E519262967298731C829A83D
:104590002987296721661125110510E510E410C44B
:1045A00010C410A3108310A410A410A410A510A56B
:1045B00008A5090719AA222C2A6D32CF33113332EC
:1045C000333333133B133B333B343B543B543B7546
:1045D00033553B553B553B55335533553355335583
:1045E0003B553B553B553B553B753B753B753B55EB
:1045F0003B553B553B553B753B763B764376437687
:104600004376437643764376437643963B963B9593
:104610003B963B763B763B763B763B763B753B76F3
:104620003B763B7643954395439543954375437558
:104630004375439543753B743B543B543B743B7506
:104640003B743B743B743B753B743B743B543B7411
:104650003B743B753B743B753B753B543B543B543F
:104660003B543B543B343353333333333B1232D11B
:104670002AB0224E224D224D226E2A8F2AD032F1AC
:1046800033123333333333533354333333533B5491
:104690003B543B543B3333333333331333133333D0
:1046A000333333532B322B522B312B2F130D0AEC78
:1046B0003D127F7A8FFC87FB8FFC8FFB87FC8FFC82
:1046C0008FFC87FC8FFC87FC8FFC97FC8FDB6E36A2
:1046D00033CD1A271185094408E310C310C310E332
:1046E00010C310C410E410E410C41905212621875A
:1046F00029C8320931C8192610C410C418C518C5F4
:1047000018C418C418C518C518C518C518C518C5C3
:1047100018E518C518E518C418C410C410C410C58D
:1047200010C410C410C418E510C418E518C518C585
:1047300018E410C410C410C410C410C410C410C4B1
:1047400010C410C410C410C418E518C518C518C585
:1047500018C518C518E518C518C418C410C410A485
:1047600010A410C410C410C410C418E52146298731
:1047700031A831A831C821A72166192510E410E419
:1047800010C410A3088308A410A410A410A510A599
:1047900008C600E61169220B2A6D2ACF3311335364
:1047A00033543B543B543B543B5443543B753B764E
:1047B0003B753B763B7633763B763B763B763B767A
:1047C0003B763B763B763B763B7643963B76437631
:1047D0003B763B763B7643963B963B763B763B7609
:1047E0003B763B753B763B763B763B963B964396DA
:1047F0003B96439643964376439643964396439619
:104800004396439643954395437543754375437566
:104810003B743B753B753B743B743B743B743B741E
:104820003B743B743B743B743B743B743B743B750F
:104830003B753B743B743B743B753B543B543B545E
:104840003B543B543B343B343313331232F23290FB
:104850002A6E220C21EB19EA1A0C224D2A8F2AD03B
:1048600032F133323333333333543B333B333B5303
:104870003B533B533B5433333333331333133334CE
:10488000333333332B322B522B51232F130D132C55
:104890004553879A8FFB87FB8FFC8FFC87FC8FFC2F
:1048A0008FFC8FFC87FC87FC8FFC8FDC8FFC8739AB
:1048B0004CF11AC911C60945090410E310C310E4EC
:1048C00010C410C410E410E419052146298729A852
:1048D00029C831C8214610E510C410A418C418E531
:1048E00018E518E518E518E518E518E518E518E5E0
:1048F00018E518E518C418C510C410C418C410C4AD
:1049000010C510C510C510C510C510C518C510C5F7
:1049100010C410C510C410C418E410C410C410C4CE
:1049200010C418C410C410E518C518C518E518E55A
:1049300018E518C518E518C518C510C410A410A4AA
:1049400010A410C410C410A4108410A418E52126CB
:104950002146296729A729C829C829A72146190559
:1049600010C410A410A410A410A410A410A50885AD
:1049700008A600A6092819AA2A4C2AAF32F13353F7
:104980003B543B543B5443543B753B553B553B5583
:104990003B763B563B763B763B763B753B553B55F2
:1049A0003B563B763B763B763B763B763B753B76A0
:1049B0003B763B763B7643763B763B763B763B7667
:1049C0003B763B763B763B753B753B753B753B7564
:1049D0003B753B763B753B753B553B5543763B55AD
:1049E0003B753B754375437543753B75437543751F
:1049F0003B543B544354435543543B543B543B5426
:104A00003B743B743B743B743B743B553B753B556B
:104A10003B553B543B543B743B733B533B323B3223
:104A20003B12433343133AF332F232D132AF2A6EA0
:104A30002A4C21EA19881168116919CB222D2A8E76
:104A40002AD03B123B323B133B343B3333333B5393
:104A50003B533B533B3333343313333333333333ED
:104A600033333333333333322B11233012EE132DE0
:104A70004D537F7A87FB8FFB8FFC8FFC87FC8FFC6D
:104A80008FFC87FC87FC8FFC87FC87FC8FFC8FBB2F
:104A90006E362BAD12481185110410C310C410C41A
:104AA00018E410C410C418E42126296631A731E89F
:104AB00029A7214610E410C410E410C418E418E536
:104AC00018E518E518E518E518E518E518E518E5FE
:104AD00018E518E518C518E510C410C410C410C4B2
:104AE00010C410C410C410C410C410C410C410C426
:104AF00010C410C418E518E518E510C410C410C49B
:104B000010C418C410C418E410C418E418E518E45C
:104B100018E518E518C418C418E518A418A418A4B2
:104B200018A418A418C410A4108410A410C418E564
:104B300018E519051926216729A829A82987298791
:104B4000212618E510C418A410C410C510A508A586
:104B500010A608A610E719682A0B2A6E32F03B331C
:104B60003B543B543B543B553B563B753B553B55A7
:104B70003B553B553B753B553B553B553B553B5595
:104B80003B753B753B753B753B763B763B76437699
:104B90003B763B763B7643763B763B753B753B56A7
:104BA0003B563B763B763B753B753B753B753B75A2
:104BB0003B753B753B753B553B353B553B553B5535
:104BC0003B553B55437543754375437543753B757D
:104BD0003B543B543B543B343B543B343B543B549D
:104BE0003B743B543B543B543B543B543B553B354B
:104BF0003B543B543B5443533B533B12331132F130
:104C000032D032D032B132B02A8E2A4E2A2D220C26
:104C100021CA1989196819471149198A19EB224DB6
:104C20002AAF32F13B323B333B333B333B333B53D5
:104C30003B533B5333333333331333333334333313
:104C400033333333333233322B1123301B0E134DB6
:104C50004D5387798FFB87FB8FFC87FC87FC87FC94
:104C600087FC87FC87FC87FC87FC87FC87DC8FFC44
:104C7000871944901A8911A6112510E410C410C494
:104C800010C410C410C419052146298731C82187D2
:104C90001925110510E410E410C410C418E418E438
:104CA00018E518E518E518E518E518E518E518E51C
:104CB00010C410C510C410C410C410C410C410C453
:104CC00010C410C410C510C410C410C410C410C443
:104CD00010C410C410C410C410C410C410C410C434
:104CE00010C410C410C418E410C418E518E518E581
:104CF00018E518E518C518C418C418A410A418C4D9
:104D000018A418A418A410A410A410C410C410C48B
:104D100010C410A410E519051926216729A731A888
:104D200031A82967212618E510C410C510C508A5AB
:104D300010A508A510C6112721AA2A2C32AF3B12B4
:104D40003B333B543B543B553B753B553B553B76C6
:104D50003B553B553B553B553B553B553B553B55D3
:104D60003B763B763B763B763B553B763B753B76DD
:104D70003B553B553B553B553B553B753B753B7553
:104D80003B763B563B763B753B753B553B553B5520
:104D90003B553B553B553B553B553B553B543B5495
:104DA0003B553B5443753B753B753B7543753B75B4
:104DB0003B543B543B543B543B543B543B543B547B
:104DC0003B543B543B543B743B743B743B543B540B
:104DD0003B343B343B333B323AF132D02AAF2A8E5C
:104DE0002A4D2A4D2A2D2A2D2A0C21EB21CA21A930
:104DF00019681947190619061127194819A9220B0C
:104E00002A6D2AAF33113B323B323B123B323B33EC
:104E10003B333B32333333333313331333133333B3
:104E200033333333333333322B1123101B0E132D13
:104E30004533877A87FB87FB87FC87FC87FC87FCE9
:104E400087FB87FC87FC87FC8FFC87FC87FC8FFC3B
:104E50008F9B5D74230A11E71986190410C418C4C6
:104E600010C410A410C41905214629A729A7192583
:104E700010E410C410E410E410C410C418C418E501
:104E800018E518E518E518E518E518E510C410C48C
:104E900010C410C410C410C418E510C410C410C449
:104EA00010C410C410C410C410C410C410C410C462
:104EB00010C410C410C410C410C410C410C410C452
:104EC00010C410C410C418E510C418E518E518E59E
:104ED00018E518E518C518C510A410A418C418A41E
:104EE00018A418A418A418A410A410C410A410C4C2
:104EF00010A410C418E510C410C419052126296790
:104F000031C831C831A8214618E510C410E510C5D4
:104F100010C510A510C51106194821EB328E3AF1C3
:104F20003B133B34433543553B553B553B553B5574
:104F30003B553B553B553B553B553B553B553B55F1
:104F40003B553B553B553B553B763B763B763B557E
:104F50003B553B553B553B553B553B753B753B5591
:104F60003B563B563B753B753B743B543B543B7443
:104F70003B543B543B543B543B543B5433543B54C1
:104F800033543B54437543753B753B7543753B75D3
:104F90003B543B543B753B753B753B753B753B75D3
:104FA0003B753B753B543B743B743B543B543B5407
:104FB0003B533B333B123AF1328F2A6E2A6D222B40
:104FC00019EA19CA19AA19A9218821881967194744
:104FD000194718E610C510C508C51106116819C98A
:104FE000222B224D2ACF3B103B113B323B323B322E
:104FF0003B323B32333333333333331333133313D3
:1050000033343333331333322B12231112EE0AECC1
:105010003CF17F5987FB87FB87FC87FC87FC87FB7C
:1050200087FB87FC87FC87FC87FC87FC8FFC87FC61
:1050300097FC76B7340E1A8911A6192518E510C405
:1050400010A410A410E41925218729C8196610E5B9
:1050500010C410C410C410C410C410C410C418E587
:1050600018E518E518E518E518E518E510C410C4AA
:1050700010C410C410C410C410C410C410C410C490
:1050800010C410C410C410C410C410C410C410C480
:1050900010C418E518E510C418E510C410C410C4F5
:1050A00010C410C410C418E510C418E518E518E5BC
:1050B00018E518E518C518C510A410A418A418C43C
:1050C00018C418A410A418A418C410A410C418C498
:1050D00010C410C418C518A410C418E518E51905A3
:1050E000214629A731C829A82147190510C410C491
:1050F00010C410C410A410C5192721A92A2D32B03C
:105100003B123B34433543563B553B553B553B5592
:105110003B553B553B553B553B553B553B553B550F
:105120003B553B553B553B553B553B763B553B55DE
:105130003B553B553B553B553B553B753B753B55AF
:105140003B563B563B753B753B543B543B543B54A1
:105150003B543B5433543B543B543B743B543354C7
:105160003B543B543B753B753B753B753B543B5443
:105170003B753B753B543B543B543B543B543B7554
:105180003B753B753B543B743B743B543354335336
:105190003B333B3332F13AAF324D2A2C21EB1989A4
:1051A0001988118819881967196719471926192646
:1051B000190618E518E518E518E5110611261988ED
:1051C00019EA222B2A6C2A8D32CF3AF03B113B117F
:1051D0003B123B123B3333333333333333333334C8
:1051E00033143333333333122B122B1112CE130CEF
:1051F00034B17F5987DA87FC87FC87FD87FB87FB03
:1052000087FB87FC87FC87FC87FC87FC87FC8FFC7F
:105210008FFC877A4D1222EA11E71145110510E43F
:1052200010C410C410C41905218729A7196610E4F9
:1052300010C410E510E510C410E418E418C418C533
:1052400018E518E518E518E518E518E510C410C4C8
:1052500010C410C410C410C410C410C410C410C4AE
:1052600010C410C410C410C410C410C410C410C49E
:1052700010C410C410C410C410C410C410C410C48E
:1052800018E510C410C418E510C418E518E518E5B1
:1052900018E518E518C518C510A418A418A418A472
:1052A00018A418A418A410A418A410A418C410C4F6
:1052B00010C410C410C418C418C518C410C418E50C
:1052C00018E51926298731C829A82167190510E58D
:1052D00010C410C410C410C41906216829EB328F01
:1052E0003AF14334433543563B553B553B553B55CB
:1052F0003B553B753B553B553B553B553B553B550E
:105300003B553B553B553B553B553B553B553B551D
:105310003B553B553B553B553B553B753B753B55CD
:105320003B563B553B753B553B54335433543354F8
:105330003B543B543B5433333333335433333333A1
:1053400033333B543B753B753B753B753B543B7569
:105350003B753B543B753B753B753B753B543B750F
:105360003B543B543B743B743B743B543353333397
:1053700033323AF132B0326E2A0C21CA1989114700
:1053800011261126112619261926190519051905A0
:1053900018E5190518E518E518C510E511061147B7
:1053A00019A821EA2A2B2A4C2A6D32AE32EF3AF1A3
:1053B0003B123B323B333313331333333333333406
:1053C00033133314333333332B122B111B0F130CC2
:1053D0002C4F771887DB87FC87FD87FC87FC87FBD2
:1053E00087FC87FC87FC87FC87FC87FC8FFC8FFD94
:1053F0008FFD8FDC66362B8C122811A61125110526
:1054000008C410E41925196621A729A8214610E52A
:1054100010C518C518C510C518C518C510C518E59C
:1054200018E518E518E518E518E518E510C410C4E6
:1054300010C410C410C410C410C410C410C410C4CC
:1054400010C410C410C410C418E510C410C410C493
:1054500010C410C418E510C410C410C410C410C483
:1054600010C410C410C418E510C418E518E518E5F8
:1054700018E518E518C518C510A418A418A418A490
:1054800018A418A418A418A418A410C410C418C4EC
:1054900018E510C410C418C410C418C410C410C433
:1054A00010C418E51906214731A829882987214603
:1054B000190510C410C410C510E5112721AA2A4DE2
:1054C00032B0433443353B353B553B553B553B555B
:1054D0003B553B553B553B553B553B553B553B554C
:1054E0003B553B553B553B553B553B553B553B553C
:1054F0003B553B553B553B553B553B753B753B55EC
:105500003B563B553B753B553B5433543B5433540E
:105510003B543B5433333333333333333333333309
:10552000333333333B753B753B753B753B543B75B0
:105530003B753B543B753B753B753B753B543B544E
:105540003B543B5443543B543B7433543333333216
:1055500032F132AF2A6E322C29EA21891147110625
:1055600011061106110611061106110510E510E5C8
:105570001105190519051905190519051105112632
:105580001127198821CA2A0B2A2C2A8D32AE32D033
:105590003AF13B123B3333133B13333333333B1476
:1055A000333433133333333333132B11232F130D8E
:1055B00023EE669787DB87FC87FD87FC87FB87FBED
:1055C00087FB87FC87FC87FC87FC87FC87FC8FFCBC
:1055D0008FFC8FFC76F9342F126911C711661145C3
:1055E00011251946216729A729A831C8214610E5A8
:1055F00010C410C510C510C510C518C518C518C5EC
:1056000010E518E518E518E518E518E510C410C40C
:1056100010C410C410C410C410C410C410C410C4EA
:1056200010C410C410C410C410C410C410C410C4DA
:1056300010C410C410C410C410C410C410C410C4CA
:1056400010C410C410C418E510C418E518E518E516
:1056500018E518E518C518C510A418A418C418A48E
:1056600018A418A418A418A410A410A410C418C432
:1056700018E510C410C410C410C410C410C418C558
:1056800018C518C418E51905212631A831C831A854
:10569000214710E508C510C510E61106198921EC4F
:1056A000328F3B133B553B753B553B763B553B554A
:1056B0003B553B553B553B763B553B553B553B5549
:1056C0003B553B553B553B553B553B553B553B555A
:1056D0003B553B553B553B553B553B753B753B550A
:1056E0003B553B553B553B553B5433543B543B3466
:1056F0003B543B5433333334333433333334333424
:10570000333433343B743B743B743B753B743B74B0
:105710003B743B543B753B743B743B753B553B754D
:1057200043544354435543543B54333333522AF187
:105730002AAF224E19EC21AA216919271106110658
:105740001106110618E610E611061106110618E6F4
:105750001106110510E5190518E5190511051106C1
:10576000112611471968196819A9220B2A6D32AF41
:1057700032F132F23B12333333333B1333343313CE
:10578000331433133313331333132B322330132EC9
:105790001BCD56357F9A87FC87FD7FFC87FC87FBF6
:1057A00087FB87FC87FC87FC87FC87FC87DC8FDC1A
:1057B0008FFC8FFD879B4D121AEA120719A71987D4
:1057C00021C721C729A831E831C831C8214610C5F1
:1057D00010C410C410C410C410C518C518C518C50D
:1057E00010E518E518E518E518E518E510C410C42B
:1057F00010C410C410C410C410C410A410C410C429
:1058000010A410C410C410C410C410C410C410C418
:1058100010C410C410C418E510C410C410C410C4BF
:1058200010C410C410C418E510C418E518E518E534
:1058300018E518E518C518C510A418A418A418A4CC
:1058400018A418A418C418A418A410A418C410C428
:1058500010C410C410C410C410C410C410C418C59F
:1058600018C518A418C418C418C5212631A931C9EF
:1058700029A92167192610C510E61106114819CA71
:105880002A4E32D13B343B753B553B763B553B551D
:105890003B553B563B553B563B553B763B553B5565
:1058A0003B553B553B553B553B553B553B553B5578
:1058B0003B553B553B553B553B553B753B553B5548
:1058C0003B553B553B553B553B5433543354335474
:1058D0003B543B543B543334333433543B543354B0
:1058E0003B543B543B553B553B553B553B55435532
:1058F0003B553B553B553B753B7543543B543B74C3
:105900003B743B543B5443343B13331132F02A8EE7
:10591000224D21EB198A19481927110610E610E5C6
:1059200010E510E510E510E510E51905190510E57D
:1059300019051905190518E5190519051925190677
:105940001106110611261947198819A9222B2A8E2A
:1059500032D03AD13AF23B123332333233123B3344
:105960003B343B343B333333333333322B301B4EF6
:1059700013AE45D47FBA7FFC87FC87FC7FFC7FFC9D
:105980007FFC87FC87FC87FB87FC87FC87FC8FFC00
:105990008FFC8FFC97BC6E162B6C124819E821C740
:1059A00029A729A72987298729872967214618E553
:1059B00018E510C410C410C410C418E510C418E5CC
:1059C00018E518E518E518E518E518E510C410C441
:1059D00018C418C518C418C410C410C410C410C406
:1059E00010C410C410C410C410C410C410C410C417
:1059F00010C410C410C410C410C410C410C418E5DE
:105A000018E510C410C410C410C418E510C410C4A4
:105A100010C418C518C518C418A410A418A418A434
:105A200018A418A418A418A410A418A410C418C466
:105A300010C410C410C410A410A410C410C418E5DD
:105A400018C518C518C510C410A418E4192629884B
:105A500029A929A921681926110608E5112619A9DD
:105A6000220C32B03B333B553B763B963B963B7525
:105A70003B753B553B553B563B553B553B553B5585
:105A80003B553B553B553B553B553B553B553B7675
:105A90003B553B763B763B763B7643763B553B55D9
:105AA000437643553B5543553B553B753B553B541E
:105AB0003B543B743B543B5433543B543B5433545E
:105AC000335433543B553B553B553B553B553B5568
:105AD0003B553B553B553B553B553B543B543B7429
