:020000040800F2
:10000000680600208901000891010008930100089A
:100010009501000897010008990100080000000000
:100020000000000000000000000000009B0100082C
:100030009D010008000000009F010008A1010008C8
:10004000A3010008A3010008A3010008A301000800
:10005000A3010008A3010008A3010008A3010008F0
:10006000A3010008A3010008A3010008A3010008E0
:10007000A3010008A3010008A3010008A3010008D0
:10008000A3010008A3010008A3010008A3010008C0
:10009000A3010008A3010008A3010008A3010008B0
:1000A000A3010008A3010008A3010008A3010008A0
:1000B000A3010008A3010008A3010008A301000890
:1000C000A3010008A3010008A3010008A301000880
:1000D000A3010008A3010008A3010008A301000870
:1000E000A3010008A3010008A301000800F002F822
:1000F00000F03AF80AA090E8000C82448344AAF188
:100100000107DA4501D100F02FF8AFF2090EBAE885
:100110000F0013F0010F18BFFB1A43F0010318473B
:10012000F07F000010800000103A24BF78C878C12A
:10013000FAD8520724BF30C830C144BF04680C60ED
:10014000704700000023002400250026103A28BF35
:1001500078C1FBD8520728BF30C148BF0B60704739
:100160001FB51FBD10B510BD00F031F81146FFF7E7
:10017000F7FF00F0F1FB00F04FF803B4FFF7F2FFD8
:1001800003BC00F057F800000948804709480047C1
:10019000FEE7FEE7FEE7FEE7FEE7FEE7FEE7FEE737
:1001A000FEE7FEE704480549054A064B7047000094
:1001B000D1070008ED000008680000206806002054
:1001C000680200206802002070477047704775463B
:1001D00000F02CF8AE4605006946534620F00700B3
:1001E000854618B020B5FFF7DDFFBDE820404FF091
:1001F00000064FF000074FF000084FF0000B21F011
:100200000701AC46ACE8C009ACE8C009ACE8C009DD
:10021000ACE8C0098D46704710B50446AFF30080C6
:100220002046BDE81040FFF7A8BF00000048704717
:100230000400002001491820ABBEFEE726000200A2
:10024000704700001148806940F008000F4988613C
:100250000F480068C0F313000D49086008460068A5
:100260000C4908430A490860081D006820F0FF0097
:10027000091D08600846006840F0330008604FF62A
:10028000FF7003490C310860704700000010024005
:10029000000C01400000303330B52A2000F0C8FACD
:1002A000002000F0D9FA002000F0D6FA002000F07B
:1002B000D3FAEF2000F0D0FA2B2000F0B9FA00209A
:1002C00000F0CAFA002000F0C7FA012000F0C4FADA
:1002D0003F2000F0C1FA2C2000F0AAFA00240EE022
:1002E000002509E0002000F0B7FA002000F0B4FA81
:1002F000002000F0B1FA6D1CF02DF3D3641CB4F5AE
:10030000A07FEDD330BD70B504462A2000F090FAEE
:10031000002000F0A1FA002000F09EFA002000F07A
:100320009BFAEF2000F098FA2B2000F081FA0020D1
:1003300000F092FA002000F08FFA012000F08CFA11
:100340003F2000F089FA2C2000F072FA002510E01E
:1003500000260BE0C4F3074000F07EFAC4F3072048
:1003600000F07AFAE0B200F077FA761CF02EF1D3C2
:100370006D1CB5F5A07FEBD370BD000000B520204B
:1003800078490860802008604FF47A7000F078FAAD
:1003900080207449091F08604FF47A7000F070FAE9
:1003A000112000F045FA782000F06AFA2A2000F0C7
:1003B0003FFA002000F050FA002000F04DFA002033
:1003C00000F04AFAEF2000F047FA2B2000F030FA54
:1003D000002000F041FA282000F03EFA012000F051
:1003E0003BFA172000F038FAB22000F021FA0C2076
:1003F00000F032FA0C2000F02FFA002000F02CFA66
:10040000332000F029FA332000F026FA202000F0F3
:100410000FFAB72000F00CFA562000F01DFABB20AE
:1004200000F006FA182000F017FAC02000F000FAD9
:100430002C2000F011FAC22000F0FAF9012000F09F
:100440000BFAC32000F0F4F91F2000F005FAC420D5
:1004500000F0EEF9202000F0FFF9C62000F0E8F9E6
:100460000F2000F0F9F9D02000F0E2F9A62000F00A
:10047000F3F9A12000F0F0F9E02000F0D9F9D02044
:1004800000F0EAF90D2000F0E7F9142000F0E4F99B
:100490000B2000F0E1F90B2000F0DEF9072000F05E
:1004A000DBF93A2000F0D8F9442000F0D5F95020CB
:1004B00000F0D2F9082000F0CFF9132000F0CCF9B9
:1004C000132000F0C9F92D2000F0C6F9322000F009
:1004D000C3F9E12000F0ACF9D02000F0BDF90D2007
:1004E00000F0BAF9142000F0B7F90B2000F0B4F9CD
:1004F0000B2000F0B1F9072000F0AEF93A2000F02F
:10050000ABF9442000F0A8F9502000F0A5F908202C
:1005100000F0A2F9132000F09FF9132000F09CF9DD
:100520002D2000F099F9322000F096F9362000F0E5
:100530007FF9002000F090F93A2000F079F9662068
:1005400000F08AF9E72000F073F9002000F084F948
:10055000212000F06DF9292000F06AF92C2000F02C
:1005600067F900BD140C014070B504462A2000F064
:100570005FF9002000F070F9002000F06DF9002014
:1005800000F06AF9632000F067F92B2000F050F9C1
:10059000002000F061F9002000F05EF9002000F07A
:1005A0005BF9632000F058F92C2000F041F9002598
:1005B00011E000260CE014F8010B00F04DF914F8DE
:1005C000010B00F049F914F8010B00F045F9761C15
:1005D000642EF0D36D1C642DEBD370BD002116E0AA
:1005E00020220C4B1A6000F0800212B940221A60DF
:1005F00003E04022074B1B1F1A604206100E202208
:10060000044B1B1F1A601B1D1A604A1CD1B208291B
:10061000E6DB7047140C01400021304A1161D160C3
:100620001421516100219161D1611146096841F0A5
:100630000101116011464968294A1140274A516059
:1006400011460968274A1140244A11601146096879
:1006500021F4802111601146496821F4FE015160A6
:1006600000BF1E494968C1F381010029F9D11B4A25
:1006700091601146096841F48031116000BF17494B
:100680000968C1F340410029F9D04FF48061134A51
:100690005160811EC8B21146496841EA80415160EB
:1006A0001146496841F4803151601146096841F0B2
:1006B0008071116000BF09490968490E0029FAD00C
:1006C0000649496841F00201044A516000BF0349EC
:1006D0004968C1F381010229F9D170470010024035
:1006E0000000FFF8FFFFF6FE10B500F001F810BDA6
:1006F0000CB50020019000903348006840F4803031
:100700003149086000BF3048006800F400300090B4
:100710000198401C0190009818B90198B0F5A06F9D
:10072000F1D12948006800F4003010B10120009098
:1007300001E0002000900098012843D12348006880
:1007400040F01000214908600846006820F00300CE
:1007500008600846006840F0020008601A484068D7
:10076000194948600846406848600846406840F4B7
:10077000806048600846406820F47C104860084665
:10078000406840F4E81048600846006840F0807017
:10079000086000BF0C48006800F000700028F9D025
:1007A0000948406820F0030007494860084640684F
:1007B00040F00200486000BF0348406800F00C00B1
:1007C0000828F9D10CBD00000010024000200240B2
:1007D00010B51348006840F0010011490860084650
:1007E0004068104908400E494860084600680E49B4
:1007F00008400B4908600846006820F48020086023
:100800000846406820F4FE0048604FF41F008860EE
:10081000FFF76AFF4FF000600449086010BD000058
:10082000001002400000FFF8FFFFF6FE08ED00E0B8
:1008300010B504464FF48070064908604000086017
:100840002046FFF7CBFE4FF400700249091F0860F5
:1008500010BD0000140C014010B504464FF4807028
:10086000064908604000091D08602046FFF7B6FEF3
:100870004FF400700149086010BD0000100C0140E9
:10088000002106E0002200E0521CB2F5617FFBD39C
:10089000491C8142F6D370472DE9F04704460D46C6
:1008A00016461F464FF000092A20FFF7C1FFC4F388
:1008B0000720FFF7D1FFE0B2FFF7CEFF0F34C4F3FC
:1008C0000720FFF7C9FFE0B2FFF7C6FF2B20FFF7B5
:1008D000AFFFC5F30720FFF7BFFFE8B2FFF7BCFF8C
:1008E0000F35C5F30720FFF7B7FFE8B2FFF7B4FFF6
:1008F0002C20FFF79DFFC84628E097F800A04FF096
:1009000000091DE00AF0010058B1C6F30740FFF7E7
:10091000A3FFC6F30720FFF79FFFF0B2FFF79CFF8E
:1009200008E00020FFF798FF0020FFF795FF002068
:10093000FFF792FF4FEA6A0A09F1010000F0FF0990
:10094000B9F1080FDEDB7F1C08F10108B8F1200FB8
:10095000D3D3BDE8F087000045484649086004202D
:10096000FFF75AFEFFF76EFCFFF708FD4FF47F001C
:10097000FFF7C9FC4FF47A70FFF782FF4FF47F4016
:10098000FFF7C1FC4FF47A70FFF77AFFFF20FFF703
:10099000BAFC4FF47A70FFF773FFFFF77DFC66E057
:1009A00034480068FFF7E0FD42F21070FFF768FF7F
:1009B000314B4FF47F02C8216820FFF76DFF2E4BAB
:1009C00020334FF47F42C8217820FFF765FF2A4B80
:1009D0004033FF22511C5020FFF75EFF264B60334F
:1009E0006FF07F424FF480716020FFF755FF224B7C
:1009F0008033FF22511C7020FFF74EFF1E4BA033A7
:100A00004FF47F424FF480718A20FFF745FF1A4B65
:100A1000C0334FF47F024FF480719A20FFF73CFF00
:100A2000154BE033FF224FF48C716020FFF734FF49
:100A3000124B4FF47F424FF48C717020FFF72CFF64
:100A40000E4B20334FF47F024FF48C718A20FFF756
:100A500023FF0A4B4033FF224FF48C719A20FFF79B
:100A60001BFF42F21070FFF70BFFFFF715FC97E733
:100A7000800A000800000020B07F0008B080000855
:100A80000080F40080F40080F40080F40080F40022
:100A900080F40080F40080F40080F40080F4008092
:100AA000F40080F40080F40080F40080F40080F40E
:100AB0000080F40080F40080F40080F40080F400F2
:100AC00080F40080F40080F40080F40080F4008062
:100AD000F40080F40080F40080F40080F40080F8DA
:100AE0000080FC0084FC0088F80084F00078EC04AE
:100AF00078EC0484F40C7CE00C4CA4001C740054CE
:100B0000B00878D80480F00080F80088FC0480F4F5
:100B10001880DC0050980028640024500030580CE5
:100B2000406C00205000205C003C901478DC087879
:100B3000EC0050C4004CB00C58A4002C5C001834DD
:100B4000001430001C382C48682C4C7000204C00DD
:100B5000143C2840586C7884787C886C707C646C79
:100B60007C3C486430406814244C101C40102044E5
:100B7000001440042048000C3804143808143400D1
:100B8000102C001024001420001420001420001049
:100B90002000081C041024000820000C2800082451
:100BA00000081C00081800081C00081C0080F40045
:100BB00080F40080F40080F40080F40080F4008071
:100BC000F40080F40080F40080F40080F40080F4ED
:100BD0000080F40080F40080F40080F40080F400D1
:100BE00080F40080F40080F40080F40080F4008041
:100BF000F40080F40080F40080F40080F40080F4BD
:100C00000080F40080F40080F40080F40484FC0090
:100C100080F80080F00084F00480F00880F0088400
:100C2000EC0874D800288800308C086CC8087CE474
:100C30000884F80888FC0084F80070DC0054B000D8
:100C40003480001C5C00285C0034600024500024C8
:100C50005C0030740864B81080E80880F00070E030
:100C60000064CC00449400285C04284C0018382010
:100C7000446010345400143800284C183C5C405830
:100C80006C404C5C1C2434242C3C48546818284488
:100C900010204400184008204C0018440020440054
:100CA0001438001438000C300410300414300008DC
:100CB0002000102400142400142404182C041428E8
:100CC00004102800082000082000041800081C0058
:100CD000081800081C00081C0080F40080F4008044
:100CE000F40080F00080F00080F40080F40080F4D4
:100CF0000080F40080F40080F40080F40080F400B0
:100D000080F40080F40080F40080F40080F400801F
:100D1000F40080F40080F40080F40080F40080F49B
:100D20000080F40080F40080F40080F40080F4007F
:100D300080F40080F40080F40480F4007CEC0080F7
:100D4000E80484EC0484EC0880EC0C7CDC0064C4D3
:100D500000288C0058C01080E40484EC0480F40067
:100D60007CF0006CD80058B800348C002C80002C2B
:100D7000842058A4002C5C0024500030740050A43F
:100D80000480DC0084EC0080EC0484F00C84EC0033
:100D900054AC00347000184400285000183C00285F
:100DA00048002C4804344C002438082034102034E7
:100DB0001C284024344C344868041C3C001834007F
:100DC000183C00245C1C548C00244C00203C00186F
:100DD00034041834041430000C2C00102C04143487
:100DE000081838001434081C3C081C38081834044F
:100DF000102804102400081C00081800041800041F
:100E0000180008180080F40080F40080F40080F0DE
:100E10000080F00080F40080F40080F40080F40092
:100E200080F40080F40080F40080F40080F40080FE
:100E3000F40080F40080F40080F40080F40080F47A
:100E40000080F40080F40080F40080F40080F4005E
:100E500080F40080F40080F40080F40080F40080CE
:100E6000F40080F0047CF00880F00484F00080F04E
:100E70000080EC0484F00C7CE0005CC00044B00C0A
:100E800074E00484EC0488F40480F4007CF00078BE
:100E9000E00474D000449C1460BC1860C0084CA0EE
:100EA000002C640034700048A0087CE00488F00046
:100EB00084EC0088F00080E80480E8248CE4307042
:100EC000AC001C4800305C083C6008406000203CDE
:100ED000002038002038001C34102840142C4420F6
:100EE000385008243C08244000183400204C246C5E
:100EF000A80C5090003058002440001834001834DA
:100F00000814303438543C3C5C242444181C400001
:100F10000828000C2C00102C000C2400081C0008D1
:100F20001800041400081800041800041400041821
:100F30000080F40080F40080F00080F00080F00079
:100F400080F00080F40080F40080F40080F40080E1
:100F5000F40080F40080F40080F40080F40080F459
:100F60000080F40080F40080F40080F40080F4003D
:100F700080F40080F40080F40080F40080F40080AD
:100F8000F40080F40080F40080F40080F40080F429
:100F90000480F4007CF00080F40084F80080F40009
:100FA00084F80480F00064D00068DC087CF0007CE9
:100FB000EC0488F40080F00080F00884F00888ECED
:100FC000006CD01488E81878D4004CA40034801049
:100FD00064B81078EC047CF80080F00484F400809D
:100FE000E80C84E81088E4005CAC002860003C68F1
:100FF000003C680C547C08406008385C0038601085
:10100000446C1840640424400C2844102C440C24E4
:1010100038142C4800285400245C0C549800307478
:1010200000306404345C001C400014384440647098
:1010300060803C2444745C7C3C344C0C10280010D0
:1010400020001424001824001020000C1C000C1890
:1010500000081C0008180004180004180080F400A0
:1010600080F40080F00080F00080F00080F00080CC
:10107000F40080F40080F40080F40080F40080F438
:101080000080F40080F40080F40080F40080F4001C
:1010900080F40080F40080F40080F40080F400808C
:1010A000F40080F40080F40080F40080F40080F408
:1010B0000080F40080F40080F40080F40480F800E4
:1010C00078EC0080F0048CFC0080F40080F0048058
:1010D000F0006CE0007CF40484FC007CF00484F4F8
:1010E0000080EC0080EC0484F00078E4007CE014E4
:1010F0008CE8004CA40458B00C6CC81C88F0048028
:10110000FC0080FC0888FC007CE80480E80C84E893
:101110000874D00460B000387800406C04507C0043
:101120004C740844680C4470003874105898185077
:101130008400204C0020480C2C4C08182C4454707F
:10114000184074003C7C084C94003878002C5C00FB
:101150001C440014382C385C605C7C786080583803
:1011600058785C783C2C440C102000101C00141C97
:10117000001C28001824001020040C20000C1C0067
:1011800008180004180008180080F40080F000809F
:10119000F00080F00080F00080F00080F00080F42B
:1011A0000080F40080F40080F40080F40080F400FB
:1011B00080F40080F40080F40080F40080F400806B
:1011C000F40080F40080F40080F40080F40080F4E7
:1011D0000080F40080F40080F40080F40080F400CB
:1011E00080F40080F40080F40080FC007CF408802F
:1011F000EC087CDC0064C00068C80C7CEC007CEC73
:101200000080F40080F80080F40484F40084EC048E
:1012100088F00884F4087CE41078D800489C002802
:10122000740858AC0C80E80078F00088FC0080F866
:101230000080EC0080E80080E40074D40050B0002E
:10124000348C002C74083C7400345C003460003C26
:101250006C0044840054A80054AC002C74002C682A
:101260000024601438681C1C38444060304C8434BE
:1012700068AC00307400286400285404284C001422
:101280003434405C64607C746880806C846050643A
:101290001C1C2C040C1C001424001420001C2C0406
:1012A0001830040C28081028040C1C00081800082A
:1012B000140008140080F40080F00080F00080F03A
:1012C0000080F00080F00080F00080F40080F400E6
:1012D00080F40080F40080F40080F40080F400804A
:1012E000F40080F40080F40080F40080F40080F4C6
:1012F0000080F40080F40080F40080F40080F400AA
:1013000080F40080F40080F40080F40080F4008019
:10131000F40080F4007CF80880F80C78DC0050A819
:10132000002878003C980474E00880F40480F400FD
:1013300080F40080F80084F40080EC0080E8007CF9
:10134000EC107CE40054AC0028740024701460B4E9
:101350000C7CE00080EC007CE80480EC0480EC086D
:1013600088F00088F00480E80470D8004CA40038AD
:1013700080002C60002C5C003C700048900870C419
:101380001088EC087CE00460B800449004448C04AD
:101390002C682C284C484464204078084088084435
:1013A0008C002864002C6000204800183C1C2C4C49
:1013B0002428441C1C304C4858444450080C1C0041
:1013C0000C1C081C2C00102400142C041430000CDD
:1013D00028080C28041020000C1C0008180008180D
:1013E0000080F00080F00080F00080F00080F000CD
:1013F00080F00080F00080F00080F40080F4008035
:10140000F40080F40080F40080F40080F40080F4A4
:101410000080F40080F40080F00080F00080F00094
:1014200080F00080F40080F40080F40080F40080FC
:10143000F40080F40080F40080F40080F40080F474
:101440000480F80878E80050B000287C002C780070
:1014500058B0107CE80880F80880F4007CF0008424
:10146000FC0080F80084F80480F4047CEC0064C87C
:10147000002C7C00206C003C941864C00050A40434
:1014800058A81464B80460BC0878E4007CF0007CC0
:10149000F0088CFC0074E41878D000346C00244C04
:1014A0000034702074C41084E80888F40884F014B0
:1014B00084EC1C74D41460B82C6CC00C3474202CD4
:1014C000503C4468043470044894003C900450A09C
:1014D00004448800306C0024540024480018300074
:1014E00010200C1C2404101C0814200010200414CC
:1014F00028000C2804103000143000102800102898
:10150000000C1C000C1C000C1C0008180080F000D3
:1015100080F00080F00080F00080F00080F000801B
:10152000F00080F00080F40080F40080F40080F48B
:101530000080F40080F40080F40080F40080F40067
:1015400080F40080F00080F00080F00080F00080E7
:10155000F40080F40080F40080F40080F40080F453
:101560000080F40080F40080F40080F40880F4002F
:1015700060CC00409C003C900058AC0C74D0087CBF
:10158000F00078F40880F8007CF40084F80088FC0F
:101590000080F8007CF00C7CE8005CBC00287C003B
:1015A00034842068C4206CC400286C002864003097
:1015B000740020740054C0047CF40084FC0078ECB7
:1015C0000C80EC0060B4002854002850084C8C10AB
:1015D0006CC4007CEC0484FC0C7CE40060C000382B
:1015E00090002C841054A80C40880C2C58002854CF
:1015F0000854980060B41C84E41478D80458B400EB
:10160000409000246000285C001C38001828001856
:10161000240010180014200414280410280008289E
:10162000081434001430001024001424000C1C0092
:1016300008180008180008180080F00080F00080EA
:10164000F00080F00080F00080F00080F00080F07A
:101650000080F40080F40080F40080F40080F40046
:1016600080F40080F40080F40080F40080F00080BA
:10167000F00080F00080F00080F00080F00080F446
:101680000080F40080F40080F40080F40080F40016
:1016900080F40080F40080F4047CF00068D80060DE
:1016A000C80870D4087CE8007CF00080FC0888FC46
:1016B0000480F80480F80080F00084F8007CF408CE
:1016C0007CEC0C68CC00409C003494246CD02064EA
:1016D000C00C4C980C4078002C6000286400307CD2
:1016E0000C68D00C7CF00084FC0888FC0C6CCC00EE
:1016F0003C88002450002048003C802478D40C7C96
:10170000F00474E80858B400307C001C64002C70AD
:1017100000449400347C002C64003470006CC808D1
:1017200088F40080F0088CFC0C84F0187CE00454F1
:10173000A814508C002044001028000C1800101829
:1017400000102000102400102C041434000C280079
:10175000102800182400141C001020001020000C79
:101760001C000C1C0080F00080F00080F00080F075
:101770000080F00080F00080F00080F00080F00039
:1017800080F00080F00080F00080F00080F00080A9
:10179000F00080F00080F00080F00080F00080F029
:1017A0000080F00080F00080F00080F00080F40005
:1017B00080F40080F40080F00080F00080F0008071
:1017C000F0007CF00480F40478EC0878E40C80EC01
:1017D0000484FC0080FC0080FC0080FC007CF4049D
:1017E00080F40080EC0080F0007CEC0C78E0004499
:1017F000A00020780458BC045CC00048A000206809
:1018000000205800245C0024680040940050B01868
:1018100078E00878E40C78E02070CC004090002C50
:101820006C0038740020680058B40878E8005CCC7C
:10183000044CA408387C00144C0830681458A000EC
:101840004890003878003C7C0C70C81084E8048014
:10185000EC0080E80880E80874D0004C9C14549098
:1018600004305C04203C001828001824000C2008D8
:101870001C34000C2C000C2C00143000142C001410
:101880002000182400101C000C1C00081C00081864
:101890000080F00080F00080F00080F00080F00018
:1018A00080F00080F00080F00080F00080F0008088
:1018B000F00080F00080F00080F00080F00080F008
:1018C0000080F00080F00080F0007CF0007CF000F0
:1018D00080F00080F00080F00080F00080F0008058
:1018E000F00080F00080F00080F00080F00080F4D4
:1018F000007CF80080F40080EC007CEC007CF404B8
:1019000080F80080F4007CEC047CF0087CF000801F
:10191000EC0080E8087CE80864C400247000246CB3
:101920001468C4004CAC00388C003C880028680067
:101930002C700064BC0C78DC0458B8004498002C6F
:10194000780038842870CC004CAC004CAC0860B8EF
:1019500000348C0054B40478EC1080F01464B800A7
:10196000387404244C002048145494084890284C9F
:10197000844060984070AC2460A0246CAC2074B4A7
:10198000187CBC0058940038700C48740C385C000B
:101990001C38000C28000C280018380014380010DF
:1019A00034001030000C2C04142C08182C00081CD7
:1019B0000414240414240014280014240080F000CB
:1019C00080F00080F00080F00080F00080F0008067
:1019D000F00080F00080F00080F00080F00080F0E7
:1019E0000080F00080F00080F00080F00080F000C7
:1019F00080F0007CF0007CF0007CF0007CF0008047
:101A0000F00080F0007CF0007CF00080F00080F0BE
:101A10000080F00080F00080F00080F4007CF40092
:101A200084F80088F80084F4007CF40078F40080E6
:101A3000F00888F4087CF0047CEC0080F00484EC6E
:101A4000087CE00050AC0020700C48980C68C8047A
:101A500068CC0864C000489C0044981874C80C8482
:101A6000E8087CE40C60B8002068003468104C88FA
:101A70000850A40050B80C74E40878E40064C8006E
:101A800050B41484F41078DC003C8800285C0820F2
:101A900044182C4C183C6C4058907474A08C84AC46
:101AA0009890B88488B05C709C284874205C88004A
:101AB0004068003C60043458002848001C38001876
:101AC00038001834182C4C2C40602C40600C1C3C06
:101AD0000C183808143008102C0C18300010240092
:101AE00010240010240010240080F00080F00080FA
:101AF000F00080F00080F00080F00080F00080F0C6
:101B00000080F00080F00080F00080F00080F000A5
:101B100080F00080F00080F00080F0007CF0007C1D
:101B2000F0007CF0007CF0007CF0007CF00080F0A5
:101B3000007CF0007CF0007CF0007CF0007CF00089
:101B400080F00080F00080F00480F40080F00080DD
:101B5000F40084F40080F40080F40080F40080F449
:101B6000087CF0087CEC0084F00088F00474E0004D
:101B700044B00044A8106CD40C7CEC006CD8005C21
:101B8000C40C70D80874E00C7CE80C80EC0C74D8A1
:101B900000489C00307000386800346400287410DD
:101BA0006CD00C84F0007CEC0480F0006CD40874E1
:101BB000D00050A00028600424502C385C444464B9
:101BC00068587490788CA48494906474B0809470F5
:101BD00044608C688C8C7CA04C5C7410304808305D
:101BE00048002038001C38042444041C380008280D
:101BF000282C443C3C5054586C20283804102400B5
:101C0000082400102C00103000102C0010280414A0
:101C1000280414280080F00080F00080F00080F09C
:101C20000080F00080F00080F00080F00080F00084
:101C300080F00080F00080F00080F00080F00080F4
:101C4000F00080F0007CF0007CF4007CF4007CF478
:101C5000007CF0007CF0007CF4007CF0007CF00064
:101C600080EC0080F00080F00080F00080F00080C8
:101C7000F00080F00080F00080F40084F40080F434
:101C80000080F00080F00084F40080F40878F00C0C
:101C900080F40080F00080F00070DC004CB8006838
:101CA000D80878EC047CF4007CF40070E4087CEC48
:101CB000007CF00884FC0078E8187CE0004090008C
:101CC000306C0C4874003468003C900C74D8007C74
:101CD000EC0084FC0084F8007CE41074D0004084A4
:101CE000002C600418440C1034443850906878A8D4
:101CF000747CC49094A46C70CC888CA46068743498
:101D000048A878946C64781020340020340020387F
:101D1000002040042848001434040C2830283C4497
:101D20003C485C5C641C242C0C1C2C04142C0010FF
:101D30003000143400102800102800102400102453
:101D40000080F00080F00080F00080F0007CF00067
:101D50007CF0007CF0007CF0007CF0007CF0007CEB
:101D6000F0007CF0007CF0007CF0007CF0007CF067
:101D7000047CF4007CF4007CF40080F4007CF0042B
:101D80007CF00878F40878F40078E8007CE80080BB
:101D9000F00080F00080F00080F0007CF0007CF02B
:101DA000007CF80080F80080F00080EC0080EC00FF
:101DB00080EC0080EC0480F40478F00880F8047C67
:101DC000F8047CF00068D0005CC80478E8047CF477
:101DD0000078F4047CF8047CF0007CEC0080EC04D7
:101DE00088F80078EC147CE800489C003070002CE7
:101DF0005C003470085CBC0C78EC0880FC0080F857
:101E00000084F80480EC0C70CC00348400205C2842
:101E10004074141C40685870906074A46C78D0981A
:101E20009C9C6060CC8C80C47C74A0585898647072
:101E3000382844182C4C103C5804405C00385C0096
:101E400028500010380C1030443448685860505402
:101E5000540C202000142000142C001434041434DA
:101E600004183000102800102800142C0080F00006
:101E700080F00080F0007CF0007CF0007CF0007CC2
:101E8000F0007CF0007CF0007CF0007CF0007CF046
:101E9000007CF0007CF0007CF0007CF0047CF00022
:101EA0007CF4007CF40080F40080F0007CF0087882
:101EB000F80878F40480F00080EC0080EC0080ECFE
:101EC000007CF0007CF0007CF00080F40078F400EE
:101ED0007CF40080F00080EC0080F00080F0008056
:101EE000EC007CF0047CF4047CF40074F0087CF0DA
:101EF0000078E0006CDC047CF4047CFC047CFC04D2
:101F00007CF80484FC007CEC0088F00084F0007C09
:101F1000F00C70E000449C002C74003074004C9C69
:101F2000147CE4087CF00074E80884F4047CEC0C75
:101F30007CE80050B80050B0003884042860445059
:101F4000746C5C78987084905C68906068643438D5
:101F5000A87468B47870A06C6C643C4C1C14340495
:101F6000183C002C4400385404386000305C0020D9
:101F70004C0C183C4C40584C404C28303400141841
:101F800000142800102C0010300010300018300011
:101F90000C240014280010240080F00080F0008041
:101FA000F0007CF0007CF0007CF0007CF0007CF025
:101FB000007CF0007CF0007CF0007CF0007CF00005
:101FC0007CF0007CF0007CF0007CEC007CF0007C7D
:101FD000F40080F40080EC007CF0007CFC007CFCD1
:101FE0000078F4007CF0007CE4007CE40078F004ED
:101FF00078F40078F0007CF00480F40480F0008035
:10200000F0007CEC007CF4007CF40080F00080ECBC
:10201000007CEC0880F4047CF00480F4007CEC008C
:1020200074EC047CFC0478FC0478F8007CF40080F8
:10203000F8007CEC0084F0007CEC0C80F01070DC8C
:102040000034900034900460C40878E80080F00008
:1020500080EC0C7CE41074DC1074D81478E01478F4
:10206000F4106CE40450AC00286C1C305C2C2C4840
:1020700050404C6850547C5C688868708060607820
:1020800060645C50641C1834202444102040001804
:1020900030001838001C4800204C04245408204804
:1020A0002830501C24380818280010200818300444
:1020B000103000102C00102C00142C00182C041CC4
:1020C0003004182C0080F0007CF0007CF0007CF0E4
:1020D000007CF0007CF0007CF0007CF0007CF000E4
:1020E0007CF0007CF0007CF0007CF0007CF0007C58
:1020F000F0007CF00080EC007CF0007CF00080F0D0
:102100000080EC0080F00080F4007CF8007CFC0093
:102110007CF80080EC0480EC007CF8007CFC007C07
:10212000F80078F40078EC0078EC047CEC007CF0AB
:10213000007CF8007CF80080F4007CF00080F00463
:1021400084F8007CF4007CF40080F80884FC0880AB
:10215000FC0078F80078F00080F0007CE80888F057
:102160000084F40078EC0068DC004CB80048AC0057
:1021700054C00C78F00080FC007CEC0080E4046427
:10218000C400389400287C0058B41078F41078F417
:102190001C70D4003C840C2C601C2C4C44486034D3
:1021A00030444C44605854704040541C243C18281F
:1021B0004C00143C14244410203C00102C0014301B
:1021C0000018400018480020500018400418380437
:1021D000142C04142C04142C04103000103000189B
:1021E0003000183004142C1420383440581C243C7F
:1021F000007CF0007CF0007CF0007CF0007CF000C3
:102200007CF0007CF0007CF0007CF0007CF0007C36
:10221000F0007CF0007CF0007CF0007CF00080F0AE
:102220000080F40080F0007CF00080EC0080F00082
:1022300080EC0084E80080EC0078F40078F400780A
:10224000EC0078F0007CF8007CFC007CFC007CFC5E
:10225000007CF8047CF80480EC047CEC0478F00446
:1022600078F4007CF40080F40080F40088FC0080A6
:10227000FC007CFC007CF4007CF0007CEC007CE842
:102280000888F00078D80064B8086CC80C78EC0CAA
:1022900078F8086CDC004CB41074E0147CF0007C1E
:1022A000F8007CF00480E00064BC003488002470F6
:1022B0000024600040840068D00474E41874D800DE
:1022C0003C9000246028447420346C081C54183856
:1022D00070001C5000144800285C082C5C0828542E
:1022E00004184408184000103404143408143C083E
:1022F000143C001840000C3000102C001028001472
:102300002C00142C000C2800102C001C30081C3051
:1023100024203878688468547084748C007CF000C1
:102320007CF0007CF0007CF0007CF0007CF0007C15
:10233000F0007CF0007CF0007CF0007CF0007CF091
:10234000007CF0007CF0007CF0007CF40080F40065
:1023500080F4007CEC007CEC0080EC0080EC0080E1
:10236000EC0080EC007CF80478FC007CF00080EC51
:102370000080E8007CE00C78D41478C81874BC1C89
:1023800078B4207CA4207C9C2478A42478AC207C85
:10239000AC147CB01084C00480C80080DC0484ECE1
:1023A0000480F0007CE80080EC0888EC0078D8001D
:1023B00048A0002C74002C7C005CD40870F0107CC9
:1023C000EC0064D00474E4007CEC007CF4007CEC51
:1023D0000068C80048A0002C8808449800307000AD
:1023E0001C64107CDC0C80EC187CE41064C00020C1
:1023F0006C0C4084002C78002474084C98003884BD
:10240000003C881C60A8003068002050001C480474
:102410001844001434001030040C30040C30001048
:1024200030000C2C00102C000C24000C2400142C68
:1024300000142C001830002030081C2C50445C8400
:1024400064809C789068485C007CF4007CF4007C9C
:10245000F4007CF4007CF4007CF4007CF4007CF05C
:10246000007CF0007CF0007CF0007CF0007CF00050
:102470007CF0007CF0007CF4007CF8007CF8007CB0
:10248000F0007CEC007CE8007CEC0478F80078FC40
:102490000078FC0078FC007CE40080CC107CB42444
:1024A0007CA0407C84507C68688C5C789C508CB0AC
:1024B0004494B8449CBC5098B8588CB05880A858E4
:1024C0006C98584888602C7C84187CAC087CCC00C4
:1024D00080E8007CF00074E40464C40038840024C4
:1024E000640024700C64D00C74F40880FC0078F054
:1024F0000480F0007CE80088F40088F4006CDC08BC
:1025000064D80868D81470D80050AC0034901074A7
:10251000DC0878E40478E40474DC0058BC0458B89F
:10252000045CBC004CA8187CDC0870D00470CC00A3
:102530004CA00020600428580014400014380014F7
:102540003400143004143008142C04102800102413
:10255000001024001424001024001C30001C30043F
:102560002438002030041C285444588C647CA07407
:1025700088704458007CF4007CF4007CF4007CF407
:10258000007CF4007CF4007CF0007CF0007CF00027
:102590007CF0007CF0007CF0007CF0007CF0007CA3
:1025A000F0007CF4007CF8007CF80080F00080EC07
:1025B000007CEC0478EC0874F00C74EC0C78E010FF
:1025C00078C4187CA02C84845090787CA46CA8B823
:1025D00064C4C454D4CC44DCD830E4E01CE4E41437
:1025E000E4E41CE8E428E4E030E0D834E4DC44D05F
:1025F000D458B0C87874A47C3480801C7CA4187C27
:10260000D01478D80054B0003484002464002C78AE
:10261000085CC80474F40078F80080FC007CE800D2
:1026200080E80084F00084F00474E81478F40878FA
:10263000F40C78F00058C40048AC1870D41474DC62
:102640000C84F4007CF00C80F40478E8087CE80446
:1026500078DC1480E01880DC107CD81874C4003456
:102660007400184400204800183C001C3800183042
:1026700000142C04142C000C240010240014280432
:102680002034001C30001C3000183004283800248E
:1026900034041C2C2414287C58687C5464845C68A2
:1026A000007CF0007CF0007CF0007CF0007CF0000E
:1026B0007CF0007CF0007CF0007CF0007CF0007C82
:1026C000F0007CF0007CF0007CF0007CF0007CF4FA
:1026D0000480F8007CF4007CEC0080EC0080EC00CE
:1026E0007CE4107CD41C74AC3074785C8C6088A45E
:1026F00050B8C44CD4D040E0D428ECD81CF0D4104E
:10270000FCD410FCD80CF4DC00F0E000F0E400ECA9
:10271000D800FCE008FCD808FCD40CFCD418FCD48D
:1027200020E8D430D0D85894B46C407C842874B459
:10273000105CBC003898002868001C640058C40471
:102740007CF8007CF40080F00080E80080EC0080E1
:10275000F4007CF40478F00878F00478F80478F059
:102760000464D00048A4002C7C003C940478E80069
:102770007CF80084FC007CF80080F40C80E4186C89
:10278000C408509C105CAC185CA01C4C80001C441D
:1027900000284C002444001838001C38001C380065
:1027A000103000102C001C3400142C001C340424A5
:1027B0003C041C3800142C001830001C2C041C2C69
:1027C000140C20382030705060886874007CF00051
:1027D0007CF0007CF0007CF0007CF0007CF0007C61
:1027E000F0007CF0007CF0007CF0007CF0007CF0DD
:1027F000007CF0007CF0007CF0007CF00074EC04C5
:102800007CF40080F40078E00C80D01478AC2C7458
:10281000886C987CA4BC64C8C840DCCC28F4D4186C
:10282000F8D808F8D400FCD800FCD400FCD800FC90
:10283000D000FCE400F4DC00F4E000FCE400F8D498
:1028400000FCDC00FCE000FCCC00FCD800FCDC0060
:10285000ECD808E0E044B0C478608880245C900044
:10286000388400286C002C780468D00074EC007C5C
:10287000F00078E80080E80080EC007CF80078FC4C
:102880000478F4047CF4007CF40478EC0468C80058
:10289000348400246000246C0468CC0880FC008030
:1028A000FC0080F8007CF00C70D0104C902C549000
:1028B00008306834588C2C487400244C04305C0078
:1028C0002050002454001C480020480014380014F4
:1028D0003800143800183800183400183400143048
:1028E000041430041C3000183000182C0C10241470
:1028F0001020342C38483C48007CF0007CF0007CF0
:10290000F0007CF0007CF0007CF0007CF0007CF0BB
:10291000007CF0007CF0007CF0007CF0007CF0009B
:102920007CF0007CF0007CF00478F40C80F80078F7
:10293000F40C78D4287C885C8C5CACB050D4BC346B
:10294000ECC820F4D00CF4D004F8D404F8D404F487
:10295000D400F8DC04F8E004FCDC04F4D800FCE467
:1029600004F0D800FCE80CF0E004F8E40CF8DC0813
:10297000FCDC08FCE008FCE408F8E404ECE000EC13
:10298000E010ECDC30CCC44C7084540C344400288F
:1029900070105CBC0C70CC0878DC0880F8007CF40B
:1029A000007CEC007CF0007CFC007CFC0078FC00EF
:1029B0007CF4007CF0007CE00C68B8002C6C001803
:1029C0003C0024500C54A4005CC00478E8087CEC63
:1029D0000C70D800489C284C8034406840406050BF
:1029E000507044507410305C083C84003C8C0034BF
:1029F0007C003C7C003068001C4C202858141C4093
:102A0000182C4C041C3C00183000142C04182C0406
:102A10001C2C001C3004243408203400101C00102E
:102A20001C041820007CF0007CF0007CF0007CF09E
:102A3000007CF0007CF0007CF0007CF0007CF0007A
:102A40007CF0007CF0007CF0007CF0007CF0007CEE
:102A5000F00078F00078EC0474E0147CD02C7C98C2
:102A600074A060BCBC3CE0B814FCC408FCC000FC12
:102A7000C800FCCC00F8D400F8D400F8D808F4DC86
:102A800008F4E004F8E004FCE808F0D800FCE808EA
:102A9000ECDC00FCE814F4E408F8E40CF8E40CF4D2
:102AA000E008F0E004F8EC08F0E400ECD800FCDC0E
:102AB00000F4D41CD4C8484054242464901470CC2E
:102AC0001480DC047CE40074F0007CF8007CF000EE
:102AD0007CF4007CFC0078FC0078FC007CF4007C3A
:102AE000F0007CE0004CA40030740024540024501A
:102AF000043878003C901074D4187CE01868BC0846
:102B00003C8034507C404460706078645C7424384D
:102B1000600028681858B82074DC1C70D02070C081
:102B2000084080143468403C6C544C742C34540875
:102B30001C3800102C001024001828001424001445
:102B400028042034002034001828001824001C28F1
:102B5000007CF0007CF0007CF0007CF0007CF00059
:102B60007CF0007CF0007CF0007CF0007CF0007CCD
:102B7000F0007CF0007CF0007CF0007CF0007CF049
:102B8000007CF00C7CC434807484A854C0BC28DC65
:102B9000B804F8C008F4BC00FCC800FCD000FCD4A9
:102BA00000FCD800FCD800FCDC00F8DC00F4DC0001
:102BB000FCE404F4DC00FCE800F8E000F4DC00FCD9
:102BC000EC0CF4DC00FCE800F0E000F8E400F0DCE1
:102BD00000FCE008FCE80CFCE004F8DC00F0D000AD
:102BE000ECCC10C0C04444807C187CC40080E80059
:102BF0007CF8007CFC0074F4007CF4007CF4007829
:102C0000F80078F80078F8007CF4007CEC0078E8B4
:102C1000005CD00454BC2064B400306C00245C0818
:102C2000407C0858B40458B0003470003460183C3C
:102C3000602C405C5454684C547408346C00348CE0
:102C40001870E41470F02080F00058B0003474283C
:102C5000407434245070587C3C34541018340010A4
:102C60002800142808243000182400102400182CF0
:102C700000142C001C30001C30001C2C007CF000C8
:102C80007CF0007CF0007CF0007CF0007CF0007CAC
:102C9000F0007CF0007CF0007CF0007CF0007CF028
:102CA000007CF00078F00078F00078E4107CCC280C
:102CB0007C8884AC50C4C424DCB400F8BC00FCC4E0
:102CC00004FCC800F8D000F4D000FCD400FCD40010
:102CD000FCD800FCDC00FCDC00FCE000F8E000F0CC
:102CE000D800FCF004ECD000FCEC0CF0D400FCE8C4
:102CF00000F4DC00F0E000FCEC00F8E000FCDC0498
:102D0000FCE80CFCE404F8E000FCE000F4D000E097
:102D1000D02494BC74287C840478C8007CF0007CA7
:102D2000FC047CFC007CF80078F40078F40078F077
:102D3000007CF0007CF0007CF0047CF4006CEC0C77
:102D40006CE41C74D4003C8800285C103C700C4C73
:102D500098004088003868002C500C34583450706B
:102D6000344868001C48003C88106CD4147CFC0477
:102D700070F40870E000388C00306C2C4068442CF3
:102D800050785878241C38040C28000C28000C2497
:102D90000018280014200414280C1C3400102800EB
:102DA0001830001428001424007CF4007CF4007C0B
:102DB000F4007CF4007CF4007CF4007CF4007CF4EF
:102DC000007CF4007CF4007CF4007CF4007CF400D3
:102DD00078F00078F01078CC286C7480A058BCB8DB
:102DE00018DCBC00FCC00CFCBC0CF8C004F8CC0027
:102DF000F4D800F0D800FCDC04FCD804FCDC00FCB7
:102E0000E000FCE000FCE800ECD800FCEC08F0DCA2
:102E100000FCE404FCE004F8D400FCE408F4D8006E
:102E2000FCF404ECDC00F4E400FCEC04F0E000FC56
:102E3000E800FCEC0CF8DC00FCDC00F0D410D0CC9A
:102E40002C90AC503478841474C40874E40074F486
:102E50000470F80474F40078EC007CE8007CE8006E
:102E600078E80078F40078F8007CFC087CF0086CC6
:102E7000CC00489400286400245800306C0024647E
:102E8000002058002C5C08284C102C54001C5400C6
:102E900038800468C80480EC0078EC087CF0006896
:102EA000C8003C840030601C2848503C50644C648E
:102EB00020243C081C3C081C400008280814300C46
:102EC000183008142C000820041C2C042030001496
:102ED00024001424007CF4007CF4007CF4007CF4D6
:102EE000007CF4007CF4007CF0007CF0007CF400BA
:102EF0007CF40078F00078F00078F40078EC047846
:102F0000DC2078A0789860B4B02CD8BC00E8B80079
:102F1000FCBC0CFCC014F4C404F8D400F0D800F0DD
:102F2000D800FCE004FCDC04FCDC00FCE400FCE079
:102F300000FCE800ECD800FCEC0CECD400FCF01039
:102F4000ECD000FCE410F8DC00FCE404F8E000F84D
:102F5000E400FCEC00F4E800F8E800FCEC00F8E425
:102F600000FCE400F8E000F8DC00F0D400CCC0285D
:102F700078945C3474881878CC0C70E80C68E40C95
:102F80006CE40074E00078E4007CEC0078F00074FD
:102F9000F40078FC0078FC0074F01078DC0050A499
:102FA000002C740030740028680038740C488800C5
:102FB0002C68002050001C50003484106CCC047C21
:102FC000E80080F40084F4047CE4005CB0004080FD
:102FD0000834602434503C3448342C400818340001
:102FE000183C08204C10204C484C70686880605C8D
:102FF00074383850081024041828001020041828A9
:103000000078F40078F4007CF0007CF0007CF400A0
:103010007CF00080E40080E8007CF8007CFC047810
:10302000EC0074E80078FC0480EC1474B04C8878F0
:10303000A8B440CCB80CE0BC04F0BC04F8BC0CFC58
:10304000C00CFCCC08F8D000F8D800FCDC00FCDC9C
:1030500000FCE000FCE404FCE000FCE000F8E00020
:10306000E4CC00FCF010E4D000FCEC0CECD400FC50
:10307000E80CE4CC00FCEC0CECD800FCEC04F4E430
:1030800000F4E400FCF004FCEC00FCEC00FCEC00C0
:10309000F4E400FCE400FCD800E4C00CBCB0346CE8
:1030A00088542870A01870CC003C9C00288C0050DC
:1030B000B40878E80074F80078FC007CFC0078FC28
:1030C000007CFC0074F40874E00054B40458B41894
:1030D00068B8002C7400307C003C8C002C7C0028EC
:1030E000700858A80C70D40070E0007CF00080F4E8
:1030F000007CF00060C0004490003870002C5C1030
:10310000284C182038081424000C2800183C0018FB
:10311000502C407864648884789074587078607813
:10312000584C641010280818280014200078F40067
:1031300078F4007CF0007CF00078F0007CF00080F7
:10314000E80080EC0078F8007CFC087CEC0478EC6B
:103150000078FC0474D4347C887CA054BCB81CDC9B
:10316000BC00E8BC04F0BC08F8C004FCC404FCD0FB
:1031700004FCD400F8D800F8DC00FCE400FCE40017
:10318000FCE400F8E000F8E400F8E404F0DC00F807
:10319000E400F8E000ECD800F4E000F4DC00F4E037
:1031A00000F4E000F0DC00FCEC08F0DC00FCE800DF
:1031B000FCF004F8E800FCF000F8E800FCF004EC97
:1031C000D800F4CC04E8C414CCB82498A0445480AB
:1031D0007814547C00286800206C0C60B81074D8F7
:1031E0000478E80074E80070E00478E40070E40813
:1031F00078EC0C78E40050B80060C41478DC045C0F
:10320000C01464C80450B00854AC0C58A81C70C852
:10321000147CEC047CF4047CF00478EC0878E8007E
:103220005CBC04488C04386800245400183C001826
:103230003000182C00203C002C58244C88304C8442
:10324000585C80847088401830B088A0846C8828CE
:103250001C380C14280814240078F4007CF4007C3A
:10326000F4007CF00478E80478E8007CF4007CF852
:103270000078FC0478F80078E4007CEC0078FC101E
:1032800070C05C8460A4A830CCB010E0B400ECB88E
:1032900000F4BC00F8C000FCC800F8D000F4D40072
:1032A000F4D800F4E000FCE800FCE800FCEC00F0DE
:1032B000DC00FCEC04ECDC00FCE404ECD800FCE8F2
:1032C00008E0CC00FCF010DCC800FCF010E0CC0002
:1032D000FCE808F0DC00F8E400FCE800F8E800FC9A
:1032E000F000FCEC00FCEC00FCE000FCE418E0CC9E
:1032F00028B4A820A0A028B4B85498A4505464407E
:103300000C2C440438742470BC1874BC1078B414A9
:103310007CB81874B01C74B41878BC1070C40C70ED
:10332000D8005CD00074E80078F40068F81478FCE9
:103330001474E0004CA0002C6C003C84106CD80C81
:1033400078F40470E4147CE81064D00444A0002CE9
:103350006800204C001C40001434001830001C3859
:10336000002048003C6C043C7428508054608078F5
:103370006C8458344C8C647C70547018082018107D
:10338000203C3848007CF4007CF4007CF4007CF0A5
:103390000878E80878E80078F80078FC0478F80401
:1033A00078F00078E8007CE4087CE82074A078904D
:1033B00044B8AC14D0AC04E0B000ECB800F8C000E5
:1033C000FCC400FCC800F8D000F4D400F4DC00F821
:1033D000E400F8E000FCEC00FCF008E8D400FCF0AD
:1033E00008E0D000FCF010E4D000FCE80CE8D000CD
:1033F000FCEC0CE0CC00F8E404ECD800F8E808E4BD
:10340000D000FCF008ECD800FCF004F8E800FCF078
:1034100000FCEC04FCE408E0CC1480780054580074
:1034200058641854601058540088883C4450384CF4
:103430006468507880508484509078589870649470
:1034400078608C745080744880843478941C6894BC
:103450001874AC1474C40C6CE0106CEC1068D400DC
:103460003080001444001C4C003490146CDC106854
:10347000CC0044A000389400307C002458001C4448
:1034800000183C0010340018380024440030580064
:103490003C68083C74144070384C6C646078786008
:1034A00074684C604430441C081840303C7C68749C
:1034B000007CF0007CF4007CF80078F80874F008D8
:1034C00074F00078F40078F40074E8047CEC007C7C
:1034D000F4007CE0147CBC347C7490A434C8B81430
:1034E000D4B404E4B800F0BC00F8C000FCC400FC94
:1034F000C800FCD000F8D400F8DC00FCE800F8E0DC
:1035000000FCEC04F8E000F4D800FCE404E8D80087
:10351000FCE808E8D800F4E004F8E408E0CC00FC9B
:10352000EC10E0CC00FCF010E8D400F8E404E8D89B
:1035300000F4E400F8E800F4E400FCF004FCEC081B
:10354000FCEC18C8B8147C7C2C5C6C4C3450442CBB
:1035500048382C380C3C3C00A49438B09C30B4A4BF
:1035600034C0B430D8D434D4CC28E0D034E0C83817
:10357000E0C844D4C848BCC048A8BC547C90484467
:1035800060402450682864A02468B8003078001493
:1035900034042C480038781854A800388400307857
:1035A000002864002C64002C5C042454082050047F
:1035B0001C4800183C00183C0020480028501038D7
:1035C0006C08285820385C34405848485C484450BF
:1035D00030283048383C786060907074007CE80097
:1035E0007CF0007CF80078FC0474F40874F4007833
:1035F000F80078F40078E8047CEC007CFC0074E0CF
:10360000207CA4508C689CB02CD0C410DCBC08E496
:10361000BC00F0BC00F8C000FCC000FCC800FCD03E
:1036200000FCD800FCE000FCE400FCE800FCEC0C32
:10363000E8CC00FCE40CF0D800FCE804E4D000FC8A
:10364000EC0CE0CC00FCF418D4C000FCF014E4D086
:1036500000FCE80CE4D000FCE808E4D400FCE8043A
:10366000E8D800FCEC04F4E400FCF00CF8EC14B82E
:10367000B81864743848646030546024444C18307E
:103680001C343400C0A828C8A000D8B404CCA400BE
:10369000F4CC00F8CC00FCD000FCC804FCC808FC4A
:1036A000D010E8CC08E8D014E4C828D8C84CA8AC9E
:1036B000647890743C606C103850001420001C2812
:1036C000001440001C58000C4C042C68002C6000B6
:1036D0002C5C00285C0024580824580C2054001C42
:1036E0004C00103C00143C04244C0828540C285076
:1036F000143050182C482434441C2430201C245CE2
:1037000050508C6C70987070007CE4007CE80078FD
:10371000F80078F80078F00478F40078FC0078FC81
:10372000047CF00078F00074FC0470EC2878A46845
:10373000986CA0B024CCC404D8C004E4BC00ECBC99
:1037400000F8C000FCC000FCC800FCCC00FCD404A5
:10375000FCDC04FCE004FCE80CFCE404ECD000FC21
:10376000E408F0D400FCE804E0C800FCEC0CDCC881
:1037700000FCE810ECD800E8D400F8E40CE4D00039
:10378000F8E404E4D000FCF00CE4D400F8E800F025
:10379000E000F8E800F4EC04F0F410A0B408507471
:1037A000343C645C3054502C4844304838505820E5
:1037B000CCB830D0B004CCB40CC4A800ECC400FC2D
:1037C000CC00FCC808F4C40CF0CC0CECC804F0CC61
:1037D00000FCD000F8CC00F8CC0CECCC2CDCCC44B9
:1037E000BCBC585460201C2818102430041430002D
:1037F000103C001454002468002C68002864002C3D
:1038000068002864001850001848041C5400205018
:10381000041C48001840082040001434000C280004
:10382000183000142C001024181824605058886494
:10383000709C707C0478E40078EC0078F40078F4F4
:10384000007CF00078F00078FC0078FC0078F00054
:1038500078F00078FC0C78F02474A46490689CA83C
:1038600020C8BC04D0BC00D8BC00E4BC00F4C0003C
:10387000FCC800FCC800FCD000FCD800FCDC08FC44
:10388000E408FCE408F4DC00FCE404F4DC00FCE004
:1038900000F0D800FCE808E8D400F8E408DCC80030
:1038A000FCF018D4C000FCF014E0CC00FCEC10E4F8
:1038B000D000FCE808ECDC00F8E804ECD800FCECF4
:1038C00004F4E800F0EC0CA0AC0050702C447060E4
:1038D000406058284840243C304C5420C8B430C87C
:1038E000AC00AC9800DCC410FCCC04FCC800F8C0F0
:1038F00004F8C810F8D010ECC800F8D000F8CC00DC
:10390000FCCC00FCC800FCD004F0C80CE4C81CE0EF
:10391000D04894844028200410101400103000284F
:103920006C185CAC003884002C74002C780030706B
:10393000041C54001848001C5000184C001440008F
:10394000103000143000102800183000183000101B
:103950002808142C242030705864805C688C5C68C3
:103960000474EC0474F00478F00078F0007CE80053
:103970007CEC0078F40078F4007CF00078F00074BF
:10398000FC0878E81874A0508868949C24C8BC107F
:10399000C4C004CCC004D8C014E4C018F8C818F8D7
:1039A000CC08F8D400FCE000FCE804FCE804FCECE3
:1039B00004F0DC00FCE800E8D400FCF004E4D000F3
:1039C000FCE80CE0C800FCF018D0BC00FCE810E4F7
:1039D000CC00F4E008F8E408E4D000FCE80CE0CC0B
:1039E00000FCF414E0CC00FCE804F0E000F8E4048F
:1039F000FCE4109C9000606C1C4860443C5C5438B3
:103A00005454344844485020B0A030B49800E8C41E
:103A100014F0C404F8C000FCD400F4C400F0C400E6
:103A2000FCD008F0C000FCE00CECCC00F0CC00FCBA
:103A3000D408F8CC08F8CC0CF4C804F8C80CFCC0C6
:103A400020C8A030302C0C001C400460B00C78E082
:103A50000054C0044CB00044A400308000144C0456
:103A600018480C245800184C000C3800143800106A
:103A70002C00102C001430001028001024101828DE
:103A8000504454644854683C487444500874F404E6
:103A900074F00078F00078EC007CEC007CEC0078AE
:103AA000EC0078EC007CF0007CF40078F80478E816
:103AB0001C84C82C74708CA448A4A008C8C810CC5E
:103AC000C408D8BC10E4C018ECC00CFCD00CFCDC62
:103AD00000F8E000F8E400F8EC00F8E800F8E8008E
:103AE000E4D400FCF008E4CC00FCE808E4CC00F8E6
:103AF000E408E4CC00F8E008D8C400FCE810DCC41A
:103B000000FCF018D8C400FCF014E8D400F0DC008D
:103B1000F8E400F4E000F0DC00FCE408FCE010EC69
:103B2000CC209484147C80386474503C5844344CC9
:103B3000403C48209C942CB8A00CF0C814F8C40059
:103B4000F8C000FCD000ECC400FCD808FCCC00F4A9
:103B5000C400FCDC0CECCC00F4D408F8D408F4D09D
:103B600004F8D004FCD004F8C400FCC800F4BC186D
:103B7000AC984C3C5C601474C40070E40C70E814A5
:103B80006CE41468D80850AC002468041C54042465
:103B90005C001C5000103800082C00103000082871
:103BA00000082418243C4044584844545444542C9D
:103BB00018285034406C4C5C0474F40078F0007C9D
:103BC000F0007CEC0078F00078EC0078EC0078EC09
:103BD000007CF00078F0047CFC0074F0006CE014D1
:103BE00078B060A06C749010B8B404D0B800E0BC99
:103BF00000ECC000F8C400F8C800F8D400FCE800ED
:103C0000F0E400F8EC00FCF00CF0DC00F4E008F864
:103C1000D804F4D404FCE00CE4CC00FCE810D8C0D8
:103C200000FCEC18D4BC00FCE410DCC400F8E00C90
:103C3000F4DC04E0CC00FCF014E0CC00FCEC0CE87C
:103C4000D000FCEC0CF4DC00FCE000F0CC00DCB0BC
:103C500008C0A4206C6408404C143C5C44344C28DC
:103C6000848828C4B420FCD41CFCC400F0C000FC30
:103C7000D810E8C400FCDC08F0C800F4C800FCD888
:103C800004F0C800FCDC08ECD000F4D400F4D4004C
:103C9000F4D808ECD004F0C400F4C810E8C0388CA4
:103CA00090542470AC0074EC0074EC0474F008744C
:103CB000F0005CCC003488002868002868001C50A4
:103CC000041840000C2C081034343860342C503464
:103CD000284424102824142C4040540810243C402C
:103CE000543840500474F80078F4007CF0007CF004
:103CF0000078F40474F40078EC007CEC007CF400B0
:103D00007CF40074EC0070E80C80F4107CD0247C0F
:103D10008070AC6C809420B4AC10D4C010D4B800C7
:103D2000ECC000F4CC00FCD800F4D800F4E400FCB3
:103D3000F000F8E800FCE808F8DC08F0D004FCE04B
:103D400014E8C800FCE40CE8D000F0D804E4CC008F
:103D5000F8DC08DCC400F8E00CD8C000FCF01CDC87
:103D6000C400FCEC14E8D000F8E004F8E000F0DC5B
:103D700000FCE404FCE404ECC400E8B400E8B8107F
:103D8000C8B42874780C2C48084C6824A0A02CDCFB
:103D9000C828FCD010FCC800ECC000FCE018E8C843
:103DA00000F8DC04F0C800F8D000FCD404F0C40033
:103DB000FCE010E8C800F0D000F4D800E8D000EC37
:103DC000D408F0D004F4C808F4BC08CCB448407857
:103DD000881074D00074E00074F00074F40064D8AB
:103DE0000048A800409000388400286800103C0C6F
:103DF000183C2028485048686C50746844645C340F
:103E00005038183420243C04142C24384C0420301E
:103E10000074FC0078F8007CF0007CF40474FC046E
:103E200074F80078F0007CEC007CF00080F0087CF6
:103E3000E40874D00878C80C74C01878C42474A43A
:103E400058949060884C809C28C4CC30C8BC00E456
:103E5000CC00F4D404FCDC00FCE000FCE400FCE852
:103E600000FCF008F0D800F8E004ECD400E8D00042
:103E7000FCE410E0C400FCE814D4B800FCF01CD052
:103E8000B400FCE818D8BC00F8DC0CF8DC08E0C48E
:103E900000FCF018E0C800FCEC0CECD400FCE408DA
:103EA000FCE00CE4C400E8B808F4C41CE4C814C87E
:103EB000BC147C8808787C00D8C82CECCC14ECC4EA
:103EC00000FCD400E8C400FCE008E0C400FCE00C06
:103ED000F4C400FCD404F8D400ECC800FCE410F0F6
:103EE000C400F8D000FCD804F0CC00F4CC00FCD026
:103EF0000CF0C000FCBC00ECC42C84A070247090BA
:103F00000C70C80074E80078F40078F00074DC0CE1
:103F100078D41074D81868BC002C642838602C3011
:103F20004C5C50685428447C446094587C643C60E9
:103F30001C1C34001428041C300018280078FC00D5
:103F400078F80078F00078F00474F80474F80078D9
:103F5000F40078F0007CF40078E40478D82088CC71
:103F60002C88A83488A02474A42C749C2C747854B5
:103F70008C64789C44788808B8B410D4C000F0D41D
:103F80000CF4D400FCE000FCE000FCEC00FCE800D9
:103F9000FCE804F0D800E4CC00FCE40CE4C800F435
:103FA000D804F0D804E4CC00F4D804E8CC00ECD079
:103FB00000F4D808DCC000FCE814DCC400FCE81005
:103FC000F0D400E8D000FCE80CF4DC00F8DC08E0F9
:103FD000BC00E4B804F4C818E0BC00D4BC00989459
:103FE00000CCC420F0D018F8D408ECC400FCE008E1
:103FF000E8C400FCE408E0C400FCDC08ECC400FCFD
:10400000D408F4D000ECC400FCE00CF4C400F8D0F8
:1040100000FCD804FCD400FCD000F0C400F0BC00CC
:10402000FCBC00E8B804BCBC50507C601C70B00400
:1040300074E40074F00074F00074E40074E0007440
:10404000E41068CC0434781C3060242C4C4C40586C
:104050005C304460283C844C6C684060201C380014
:10406000142C001428042034007CEC0078EC047438
:10407000F00874EC0478E80078E80078F00078F450
:104080000478F00070E40C80E8389CD0489070848C
:10409000B86888B46080AC5070A044689034708078
:1040A0001C807C0C746000BCA000F0D410F8E40408
:1040B000F4E400F8EC00F4E400FCF008FCE804F0A0
:1040C000D800ECD000FCE00CDCC000FCE410E4C83C
:1040D00000F8DC08D8BC00FCE010D0B400FCE4140C
:1040E000D0B800F8E00CF8DC08D4B800FCF018E414
:1040F000C800F4DC00FCDC04F8D400F4CC00F4C804
:1041000004E8C000E0B800D0B400A89800E4CC18DF
:10411000E8C400FCD808ECC800FCE410E4C000FCD3
:10412000E818E4C000F8D808E0C400F0D40CF0CCE3
:1041300004E8C400FCE00CF4CC00F4D800FCDC0083
:10414000FCD000FCD404F4C800FCD408F4C800E897
:10415000C000DCB8209094442C70940870DC00708F
:10416000EC0070F00074EC0074EC0470EC1068D497
:1041700000307C2438741C2C583434545434446C2F
:10418000404C64404C402C3C0C102800102C001873
:104190002C001C34007CE80078EC0874F00874EC07
:1041A0000478E4007CE40078F00078F40474F00C07
:1041B0007CF0006CDC2088C458A07C689830A8C4CF
:1041C00030B0C824B4CC34B8CC3CD4CC4CDCC848D7
:1041D000ECD03CF0D028FCE014F8E400F8E800F063
:1041E000E400FCF008FCE804FCE404F4D800FCDC87
:1041F00004F0CC00ECD000FCE00CE8C800F8D808D3
:10420000D4B800FCE014CCB000F4D408ECCC00D856
:10421000BC00FCEC14D8BC00ECD400FCE410E0C4FE
:1042200000FCE008F0CC00FCD008E8C000E0B800DA
:10423000E4BC08B89400D8BC04F8DC18E8C400FC5E
:10424000DC08E4C000FCDC10E0BC00FCE418E0BCCE
:1042500000FCE00CDCC400F0D40CF0CC08ECC40092
:10426000FCE010F4D400F0D800FCE000FCD000FC2E
:10427000D000FCD000F4C800F4CC00F0C800E8B4D2
:1042800000CCB4404C74741C74C00470E40070F82A
:104290000874F40874F4006CF00860D8002C8008EE
:1042A000286410306018284C382C405C4854544422
:1042B0005018142404102C00103000183000142C56
:1042C0000078F00078F00474F40474F00478E800E6
:1042D00078E80474F00474F40478F40074EC007C5E
:1042E000F0047CD03898B4488C5C88AC20B8C40CFE
:1042F000C0CC1CC8C814E8D01CECC814E8C008F432
:10430000CC0CFCD804FCDC00FCE400FCE000FCE489
:1043100000FCE408FCE408FCE408F8D800E4C00071
:10432000FCE00CECCC00FCD80CDCB800F8D810E0B9
:10433000C400F4D40CD0B000FCE820C4A400F0D831
:1043400000FCE80CCCB400F8DC0CFCE010ECC8007D
:10435000FCD80CE4BC00ECC408E0B800D0A800D83D
:10436000B000E4C400FCE010E4C000FCDC08E4C0E1
:1043700000FCE410E0C000FCE010E0C000FCE00C39
:10438000D8C000F8D808ECC400E8C400FCE81CE081
:10439000C800F0DC00F8E000FCD800FCD400FCD041
:1043A00000FCD004FCC400FCC400F4BC04D4B42859
:1043B0008890583C6C880C70E00070FC0470F0042D
:1043C00070EC0070FC0C74F0003484002C60003839
:1043D000600430501824481C204008143004103069
:1043E000001434000C300014340014300474F4044D
:1043F00074F40074F80078F40078E80078E8047445
:10440000F00474F00074F0007CF40078F0007CE4B8
:104410000C74C45CACB8547C20A0B010C0C410CCE8
:10442000C000E4C400F0C400ECC000ECC400F8D448
:1044300004FCDC04FCDC00FCDC00FCE000FCE40828
:10444000FCE408F8E004F8D800F0CC00FCDC0CE058
:10445000C000FCE418E0BC00F8D810CCAC00F8D8E0
:1044600014C8A400F8D014FCD810C4A400FCE40CB8
:10447000FCDC0CDCB800FCE014ECC800F8D00CE864
:10448000C000E4BC04D8B000D4AC00E8C004E8C468
:1044900000FCE010E0BC00FCE410E0C000FCE4180C
:1044A000D8B800FCE414DCC000FCE008D4B800FC80
:1044B000DC0CECC800F4D000F4D80CE4C800F8E040
:1044C00004F8DC00FCE000F8D400FCD400FCD004CC
:1044D000FCC400FCC000F4C004E0BC20B0A038580C
:1044E000745C1874CC0078FC006CE80470E800740C
:1044F000FC006CEC0454AC002C6C00285C002C58C4
:10450000001C48041844001C4400204400184000CB
:1045100014380014380010300078F00078F400747B
:10452000F80078F80078F00078EC0074F00474F08B
:104530000478F00074EC0074F4007CF80878EC1C4B
:1045400070B874ACA464802CACB81CD0C808E0BCB3
:1045500008ECC008ECC000E8C000F0C808F0CC08C7
:10456000F4D000F4D400F8DC00FCE404FCE808F823
:10457000E404F8DC00FCDC08E4C400ECCC00F0CC83
:1045800000F0D000DCBC00FCD810CCA400F4CC18A7
:10459000BC9C00FCE82CE4B800D8A800FCD814E4CB
:1045A000B400ECC000FCD414E8C000E0B800DCB4F7
:1045B00000D8B000E4BC00F4CC08E8C400FCDC0C7B
:1045C000DCB800FCE414E0BC00FCE41CD8B400FC43
:1045D000E818D8BC00FCE004DCC000FCE00CE4C43B
:1045E00000FCD80CF0D004ECC800FCE410F0D400BF
:1045F000F8E000F4DC00F4D800F8D000FCCC00FCBB
:10460000CC00ECC008D4B008BC9C1080884420705A
:10461000A00070E00C7CF00474F0006CE80C7CF4FA
:104620000460D00038980024740C2464041C5000EA
:104630001C4C00204C001C440018400C244C08204A
:10464000440014340078EC0078F00078F80078FC2E
:104650000078F40078F00074F00474F00074E8045A
:1046600078F00078F80070F80474FC1878E4347C72
:10467000B06498787C8C10CCC014D8B408DCB0003E
:10468000E0BC04D8B800D4B804D8B400ECC400F43A
:10469000CC00F8D400F8DC04FCE808F8E404F8DC0A
:1046A00000FCDC04F0CC00F8D404D0AC00FCE8142E
:1046B000D4B000FCD40CE0B000E8B804D4B000D40E
:1046C000B000FCD820CC9400FCCC10FCC80CDCB0B2
:1046D00000F4CC10D8B000DCB000E0B400ECC004B2
:1046E000FCD00CF0CC00ECC800F8D000E4C000FC1A
:1046F000D80CE4C000FCE018D8B800FCE818D4B826
:1047000000FCE40CE0C000FCE010E0C000FCE4149D
:10471000ECC800F0CC00FCE008F4D400F4DC00F4B9
:10472000E000F4E004F0D404F0D00CE8C814E0C0D9
:104730001CD4B41CCCA81094902C3C74781070BC81
:104740000474E40074F00070E80874E8086CE80C85
:1047500060D404389C002078001C64002060002491
:104760005804306020406C38547C1C3054001034A5
:10477000007CE40078E80078F80074FC0078F80029
:1047800078F40078F40074F00878F0006CE4087CA9
:10479000FC0078FC0070FC006CEC1478CC4C94A409
:1047A0004C6414BCB424CCA800D4A800D4BC0CC065
:1047B000B408B8AC00CCB800F0C400FCCC00FCCC11
:1047C00004F8D404F8E004FCE400F8DC00F8D800B5
:1047D000FCEC10E0C400ECC400E8C000FCD410D82D
:1047E000B000FCD010D49C00F8C810CC9C00FCC4D5
:1047F00014F8C410C89C00F8D018DCB804C09C00A1
:10480000D0A800E4B800F0C004FCD00CFCD80CEC3C
:10481000C400FCD404ECC400F0CC00F0CC04E8C428
:1048200000FCDC18D8B800FCE818D0B400FCEC1090
:10483000D8B000FCE418DCC000FCEC18E0C400F8C0
:10484000D800F8D400F4D400FCE404F4E000F4E070
:1048500000E4D40CCCB81CA49414A49824B4A834B8
:10486000C4B028B0A434748C5C34708C0470D8004C
:1048700078FC0078E80070E00474F40C74F40058DC
:10488000CC0048B4003898002C84002474183C8074
:10489000142C5C182C50041434000C2C007CE00008
:1048A00078E40078F40074FC0078F80078F400787C
:1048B000F40074F00474F00074EC0078F40078F8FC
:1048C0000074FC0078F80074D43490B0406424B0D4
:1048D000AC28C4A800D0B000C4BC20B0B01CB0B09C
:1048E00008D8C410F0C400FCC800FCC804F8C80014
:1048F000F8D400FCE000F8E000F8DC00F8E000FC90
:10490000E00CECC400DCB000FCD014D8A800F4C06B
:1049100000F0BC00D8A800F4C014C89000F4C4187B
:10492000D0AC00B49400C09C00CCA400D8AC00F083
:10493000C404FCCC0CFCD008F8C800ECC000FCDCC3
:104940000CE4BC00FCD40CE8C000ECC404F8D414A3
:10495000D8B800FCE414D4B800FCE410DCB400FCCB
:10496000E018D8BC00F8E010DCC000FCEC14F0D07B
:1049700000F4D000FCE004FCE00CF4E010CCC0102B
:10498000A49C2C7474286C7030707830807C1C9CD3
:104990009434989C505070581C70B00474E00070AF
:1049A000DC0478E80070EC0070F00074EC0874E847
:1049B0000864D81060C8003890002C74103064006F
:1049C0001038041840283C60007CE00078E400784F
:1049D000F00078F80078F40078F00078F40074F4CF
:1049E0000070EC087CF40074EC0074EC007CF800BF
:1049F0007CF0007CD82088A834682894A020B4AC2F
:104A000004C0B014A4A834A0A834B4B010D8C4080A
:104A1000E8C804F4C400FCC400FCC400FCC800FCEA
:104A2000D404F8E004F4E400F8E404FCE810FCD456
:104A300000FCD000DCA800F8C400D4A400F8C80C26
:104A4000DCB000C49400E0B414B48800B89808B492
:104A50009804C09C04D4AC08E8BC04F8C808FCCC9A
:104A600008FCCC08F0C000F4C400FCD004E4BC0096
:104A7000FCD810DCB400F0C808ECC804E8C800F0AA
:104A8000D004E0C000F4D404F0C400F0CC08D8BCDA
:104A900000DCC800D8C000FCE010ECCC00F8D4006A
:104AA000F8D400FCE014E8D024A89C20848C506446
:104AB0007C645070603C584430401844440C9488E6
:104AC000348484444C78742474A41474D40070E83E
:104AD0000078E80074E40078EC0074F00074F014DE
:104AE00080EC0048A000387C1C4C8C002458042822
:104AF0005C1C40700078E40078E80078F00078F4FE
:104B00000078F00078F00078F00078F00078F40099
:104B100074F00478F00074EC0078EC0078E8008021
:104B2000E40C84B0206838789C2CA4B018ACB42471
:104B30008C98449CA450C0B81CD8C000E8C804F0AD
:104B4000C400FCC800FCC800FCC000F8C400F8D4D5
:104B500000F8DC00F8D800FCE00CFCDC04FCD80811
:104B6000FCD004ECB400FCC800DCAC00E0B004D421
:104B7000A408B88800B48C04A08000A48400C09865
:104B800004E0B40CF8C810F8C804F8C404FCD40C51
:104B9000F4C400FCCC00F0C000E8BC00FCD810D885
:104BA000AC00F8D010E0B800F8D40CE0C000F0D0B1
:104BB00000E4C400F4D00CD4B400E0C800C8B000D5
:104BC000D4B400D8B400E8C400FCE010FCD400FC6D
:104BD000D818D4C03484802C5C7460446C743864FD
:104BE0007020484C142C201C2000887014AC942C8D
:104BF000ACB05C6C90742870AC0C70DC0074E0009D
:104C000078EC0078EC0074EC0074F40070EC003C7C
:104C1000A00054AC0450A000408C003C88003C88AC
:104C20000078EC0078F00078F80074F80078F00074
:104C300078EC0078EC0078F00078F40078F40078F4
:104C4000F00078F00078F40078F4007CEC0480C088
:104C5000147C643C882C84AC2494B030647C44A4E0
:104C6000B06CC8B41CE0BC00ECC000F4C000FCC4D4
:104C700000FCC400FCC004FCBC00FCC000FCC8007C
:104C8000FCCC00FCD404F8D40CFCDC10FCCC08FCFC
:104C9000C400F4BC00F8B800F0B008CC9400B484B0
:104CA00000B0840CAC840C987000B88C00F0C00884
:104CB000F8C808F8C804FCC804F8C804FCCC04F020
:104CC000C000E4B400ECC000F4C800D8B000FCD8C8
:104CD00010D4B000FCE014D0B000FCE41CC8AC0060
:104CE000FCE820C4B000F4DC14BC9C00E8C008D090
:104CF000A400E4B800F4C804FCD000F4D018B4A0B8
:104D0000346C7044507C78306C7C306C7C20505417
:104D10001C3824444410B49028D09C10DCB00CC83B
:104D2000B840709494186CB80078EC0078F800746F
:104D3000E80074E80870F00468E80460D80868D8EF
:104D40000870E00874E00870E00C70DC0078F40093
:104D500078F40078F80074F80478F00478EC0078BF
:104D6000EC0078EC0078F00078F00078F00078F053
:104D70000078F40078F40078F8047CD8188C9C0C47
:104D8000704864AC58689C4C507C5CA8BC84C0A83B
:104D900014E0B000ECC000F0C000F8BC00FCBC00A7
:104DA000F8BC00FCC000FCC400FCC400FCC000FC5B
:104DB000C400F4CC04F8D008FCC800FCCC0CF8C447
:104DC00010E0B00CCCA008B88C00D8A824D09C204F
:104DD000C8981CD8A81CE4B408E8BC00F4C000F8CB
:104DE000C400F8C400FCC404FCC808F0BC00E4B46F
:104DF00000F4C404ECBC00DCB000FCD40CDCB40057
:104E0000FCE014D4B000FCE01CCCB000F8E81CC8F6
:104E1000B800FCE018BC9800FCD018C49000F0C0AA
:104E20000CE0AC00F0C000F8D01C988018747848F2
:104E30004470702C6C802C6C7C285C5C38543898E6
:104E40009850C8A028E8AC14ECB814C4B43C688CE2
:104E5000842474BC0074EC0074FC0074EC0074E8EE
:104E60000C74F00C6CEC086CE80470EC0074F0004E
:104E700078F00074F00074F00078F40078F40078B2
:104E8000F80078F80478F40478F00078F00078EC12
:104E9000007CEC007CEC007CEC0078EC0474F0040A
:104EA00074F40474F80478E8087CC40C7CA41C7CBA
:104EB000902880803480789CC48CB8A414E0B4001E
:104EC000E0B808E8C00CF4C404F4C000F4C008F86A
:104ED000C408F4C400ECBC00F4BC00FCC004F8B886
:104EE00000F0AC00FCB400F0B000CCAC24B8A834A6
:104EF000888000B4A018CC9C08D49800D49804D41E
:104F00009C04E0B804E0B800E8B800F0B800F4BCD5
:104F100000F8C400FCC808E8B400E0AC00FCCC1009
:104F2000E4B800E0B400FCD40CD4B000FCE014D42D
:104F3000B000FCE020D0B000F4E010D8C400F8DCF1
:104F400008D0AC00F8CC14D4A400F0C00CDCA8004D
:104F5000E4B000ECBC08C8AC247C80285C806830DD
:104F600068742C64782054543C58349C9C44D0A4DD
:104F700014CC9C10B0A450748C7430709C1470D0FD
:104F80000070EC0074FC0078F00078EC0074F00025
:104F900074EC0074EC0078F00074F00074F00074AD
:104FA000F00074EC0078F00078F4007CF40078F8FD
:104FB0000478F80478F40478F40078F0007CEC00CD
:104FC0007CEC007CE8007CEC0478EC0474F404785D
:104FD000F40078F00078DC0880D8087CCC1480BC21
:104FE0001C809880BC9CA4A428C4A800D0AC08DC79
:104FF000B80CECBC04F0BC00F0B804F4C008F8C471
:1050000000F8C400F4BC00F4B800FCBC04F0B40424
:10501000E0AC10C4A834909C6054744438580C9888
:10502000A030B48C00D49800DCA00CC49000CCA8B4
:1050300000D4B000E0B000ECB400F0BC00F8C00454
:10504000FCC808E8B000E0A800FCCC14E8B800E810
:10505000B800F8D008D0A800FCDC14D8B000FCDC04
:105060001CD8B800F0D808E8D000E8C800F0CC00A0
:10507000E0B800F0C810E4B800ECB800F4B800E8FC
:10508000B400E8C81CC8BC3C58683454746C406C0C
:105090007834605C405C2CACB058BC9C24A8882060
:1050A00064705038687C145C940864BC046CE4043C
:1050B00074F80078F40078EC0074EC0078EC007878
:1050C000EC0078EC0074F00074F00074EC0074EC08
:1050D000047CEC007CF00080F0007CF4007CF800A4
:1050E00078F80478F80478F4007CEC0080EC008018
:1050F000EC007CE8047CEC0478EC007CEC007CECBC
:105100000080E8007CE4007CE80C84E80878BC3887
:105110008C90A8C874A8A81CC4AC0CDCB000F0B477
:1051200004F8B804F8B408F8B404FCB400FCB40003
:10513000FCBC00ECB400E0B408CCB434A8B06858AF
:1051400080782868A02878B02C7470587C38BCA06F
:1051500014C88C00C08C08BC9008C0A000C8A8006F
:10516000E0B000F0B800F4C000FCC404FCC808E8DB
:10517000B400E0A800FCCC18E0B000F4C404F0C413
:1051800000DCB000F8CC04E4BC00F8D00CE8C400AB
:10519000ECC400FCD808D8B400FCE00CCCAC00FC9B
:1051A000D814DCB000F4C408FCC008F8C404F4CC83
:1051B00000E8CC1CACA038686C40506860405C547F
:1051C000506834A4AC6C8C804C6C6848688478144B
:1051D00044503C74942C74B40864D80470F4007483
:1051E000F40074EC0074E80078E80078EC0078F0E3
:1051F0000074F00074F00074F00074EC047CEC00B7
:105200007CEC0080EC0080F0007CF4007CF80478FA
:10521000F80478F4007CEC007CEC007CEC007CEC86
:10522000007CEC007CEC007CEC0080E8007CE8007A
:1052300084F8007CF80068E00884E41C84B8489096
:105240007898BC70A0A434B8A418CCA808DCB00C22
:10525000E8B410ECB418F0B418E8B014DCB414C816
:10526000B420B0A844788C5834747C1870B014788A
:10527000E80C74E0187CAC1C5C44A8A430B490002A
:10528000A88C1C9C7C0CAC8800B89000E0AC00F0B2
:10529000B804F8C004FCC804FCC804ECB400E0ACDA
:1052A00000FCC810D4A000FCCC14E8B800F4C40082
:1052B000E0B800F4CC04E4B800FCD00CDCB000FC96
:1052C000E018CCA000FCE818D4B000F8D008E8B88A
:1052D00000F8C404FCC408FCD00CF4C800F0C804F6
:1052E000E8C834AC983C64643C485840687C5460DE
:1052F000745478848450647050787C4078802C6436
:10530000803C84C00C68D40470F40474F40074F01D
:105310000474EC0078EC0074EC0078F00074F00099
:1053200074F00074F00074F0047CF00080EC0084F1
:10533000EC0084EC0080F40080F40478F40478F449
:10534000007CF0007CF0007CF4007CF8007CF8002D
:105350007CF40080F00080F0007CF0047CF8007C9D
:10536000F40888FC007CF40478DC107CB8308C9C59
:1053700078AC9090AC6098A82CA0A410A8A010B411
:10538000A418B0A028A49C3C94A45C749C7C488085
:10539000942474AC0C78D4087CEC0874E80870E0B1
:1053A0000478D0106C8060803084841480803078E1
:1053B000681CB08418D89C14E0A808ECB404F8C0A9
:1053C00004FCC400FCC804F4BC00E8B400F8C00C41
:1053D000D09C00FCD01CDCAC00FCCC0CD8AC00FC9D
:1053E000D810D4A800FCD814D4A400FCD820D8AC81
:1053F00000F4CC08ECC400ECBC00FCC404F8C00011
:10540000FCD810F0C400F8C800F4C400E8B400E808
:10541000C028B09C405C6034586C6454747C6084D8
:10542000983C60784070803C748C3078A40060A414
:105430000474DC0078F40474F80070F80474F80064
:1054400074F00074EC0078EC0074F00074F00074F8
:10545000F00074F0047CF00080EC0084EC0084EC3C
:105460000080F40080F8047CF8047CF4007CF000F8
:105470007CF0007CF4007CF8007CF8007CF8008074
:10548000F40080F40480F80074F00080F8007CF4EC
:105490000078F8007CF40484EC087CC82078A444EC
:1054A0008C8C60A07070A45C7CA45884A4647C9CE8
:1054B0006C64907C387C842478A41070C80878ECE4
:1054C0000074F40078F80474F00878E8007CE018C0
:1054D00084BC306C4868883C60743C80783CB48400
:1054E00024D08C10E0A00CECB004F8C004FCC40084
:1054F000FCC800F8C400F0BC00FCC40CD8A400FC3C
:10550000CC18D8A800F4C808D8AC00FCDC18D0A08F
:1055100000FCD418DCAC00F4C010FCCC14CC9C0013
:10552000FCE020D4A400FCD010ECB800F8C804F4CF
:10553000C800ECC000E8B800ECB804D0AC18A4A0D7
:105540005044543C1C3C54204C7C104870145078FF
:10555000246488206C981068AC046CC40078E00067
:1055600078F00070F40070F40470F80474EC0474C3
:10557000E00878D80C74DC0C74DC0C74DC0874DC87
:10558000007CEC0080F00084EC0084F00080F800E7
:1055900080FC007CFC007CFC0080F40080EC00803F
:1055A000F0007CF0007CF0007CF00080F40080F4DF
:1055B0000080F8007CF4007CF4007CF4007CF404AF
:1055C0007CF0047CEC047CE4087CD80C7CCC107C63
:1055D000BC147CB4187CB01C78B41C74B81874C0AB
:1055E0001078C8087CD40478E40078EC0078F400E3
:1055F00078F8007CF40080F00080EC0C80CC207403
:10560000844478604864409C9454B4881CD08C08CE
:10561000DC9804ECA80CECB400F8C400FCCC00FC52
:10562000C800FCC800ECB800E4B000ECBC04E0B476
:1056300000ECC408D0A400FCE024E8B400ECB40002
:10564000F4C80CD8AC00FCD418D4A400F4C804E806
:10565000BC00E4B800E8BC04ECC004ECC004E0B456
:1056600000DCB40CCCB0289C984850706C144C7082
:10567000003068003474003C78004C840058980472
:1056800068B40870D00874E00074E40080F8007812
:10569000F80074F40C78F00468D00864B40C60A0CE
:1056A0001464A01864A40858981060A40084F8003A
:1056B00080F00480E80480EC0080F4007CFC007C36
:1056C000FC007CFC0080F40080F00080EC0080ECAA
:1056D0000080EC0080F00080F40080F80080F8008A
:1056E00080F8007CF4007CF0007CF0007CF0007C12
:1056F000F0007CF0007CF0007CF0007CF4007CF496
:10570000007CF40078F40078F40078F0007CEC0081
:105710007CEC007CF00078F00474F00478F4007CF9
:10572000F4007CF4007CEC0078D01878A830707C11
:1057300058706094884CB88C18CC8C00D89000E8D5
:10574000A408E8A800F4BC00FCC800FCCC00FCC81D
:1057500000E8B000F8C004D8A400F8C814D4A80029
:10576000D8A800FCD820F4BC04D8A400FCDC1CC4DD
:105770009800FCC810F8C408DCB000F8D018DCB001
:1057800000D0A000E4B400D8B004D0B81CB8B03C3D
:105790008490582C58581C689C0864B81464BC1435
:1057A00068C01474C4107CCC0C7CD8087CDC0478F1
:1057B000E40074E8087CF40070E80478EC0474E019
:1057C0000064C00C5CAC3078B028649044789C24B1
:1057D000547820547C245C880080F40078E80074BD
:1057E000DC0478E00080EC0080F0047CF40480F8B5
:1057F0000080F80080F80080F4007CF00080EC006D
:1058000080EC0080F00480F4047CF4047CF4007CE0
:10581000F4007CF00080F00080EC0080EC007CF074
:10582000007CF0007CF4007CF0007CF0007CF40054
:105830007CF0007CF0007CEC007CEC007CEC0078E0
:10584000F40074F80474F00474F00078F8007CF448
:105850000078E80878D41478B82C7090687C789038
:105860008044B48C0CCC9000D49000E8A004ECA44C
:1058700000F4AC00FCB800FCC400FCC800F8B400A4
:10588000FCC408E8A800F8B814DC9C00E0A800EC10
:10589000B400FCDC18DCA800F4C000ECB400E4A800
:1058A00000FCD020C09400E8C018D8A400D8A40000
:1058B000DCA400C8A414A4AC58608C781C68A004B4
:1058C0006CC80078DC0078E40074E00078E80478C4
:1058D000F00478F40478EC0078EC007CF0007CF0C4
:1058E0000074F00878EC0064C00054A010588C30AC
:1058F00068904874985474947490A46C8094344C58
:1059000064445C780C74DC0C70D4106CD01474DCBF
:105910000480E80080F0047CF0047CF00480F00453
:1059200080F0087CF4087CF40080EC0080EC0480BB
:10593000EC0480F0047CF0007CF4007CF00080F04B
:105940000080EC0080EC0080EC0080EC007CF00437
:105950007CF0047CF0007CF0007CF0007CF0007CAB
:10596000F00080EC007CEC007CF00078F80074F82B
:105970000478F00478F0007CF8007CF4087CE810EF
:105980007CDC1074C02C749C6C8074907C38B08467
:1059900004C89000D09000E4A004ECA404F0A4009B
:1059A000F8AC00FCB800FCC404FCC404FCB800FC67
:1059B000B808ECA400F8B410E8A800D49C00FCD40B
:1059C00010ECBC00CC9800FCC418CC9800F4C01CAF
:1059D000C8A000D4AC0CD0A000CCA004CCAC28ACA7
:1059E000AC58487C741874B0087CF00078FC0078DF
:1059F000F8007CF80080F4007CF80078FC0074F873
:105A00000074F40074F00078F0007CEC0074E80C92
:105A100074E0085CAC044480285C7C5078905C782E
:105A200094546C8464748C607488547088284460C6
:105A30001C54A42058AC285CB82068D0087CF00026
:105A400084FC0480F8047CEC0474DC0C78DC1478AE
:105A5000EC0C7CF00080F40084F00080EC0080EC22
:105A60000080F00080F00080F00080F00080EC000A
:105A70007CEC007CEC047CEC047CEC047CF0047C8E
:105A8000F0007CF0007CF0007CEC007CEC007CF012
:105A9000007CF40078F80078F80078F40478EC04DE
:105AA00078EC007CF4007CF4087CE80C7CDC087862
:105AB000C824789C6C8864907C28B07C0CC88800D2
:105AC000C89000D49C04E0A004E8A404ECA400F076
:105AD000A800FCB80CFCC40CFCC008FCC008F0B06A
